:4000000000800020110000003D0600003D06000008B5044B1A6803F53F5302331A6000F02DFB00BFFA46004010B5054C237833B9044B13B10448AFF300800123237010BDC9
:40004000A881FF1F0000000064260000084B10B51BB108480849AFF300800848036803B910BD074B002BFBD0BDE81040184700BF0000000064260000AC81FF1F0881FF1FED
:400080000000000008B51E2000F0F2F901F0A8F908BD00BF08B500F0E1FC00F0A1FE00F049FD00F0C7FF00F0E7FC00F089FF00F06FFF4FF47A7000F0D1FE002000F044FF67
:4000C0004FF47A7000F0CAFE01F026F801F00CF84FF47A7000F0C2FE002000F0E1FF01F0BBF901F055F908BD10B584B062B6FFF7D1FF1F4801F058F942F6E06001F076F949
:4001000000230393029301A800F058FA019B2BB9184800F093FD00F099FEF4E7022B0BD1154800F08BFD03A802A900F0EBF90398029900F07BF8E6E7032BE4D10F4800F02C
:400140007DFD684600F03AFA009800F065F8002400F0A0F900F0FCFC18B900F00DFD10B902E0012400E00124002CF1D0CBE700BF85000000682600007C2600009026000050
:4001800038B504460D46722821D1012000F0A8FE85EAE570A0EBE57080B200F0CFFD002D06DD002000F02AFE012000F033FE0EE0002D06DA012000F021FE002000F02AFEF3
:4001C00005E0002000F01AFE002000F023FE6C2C21D1012000F084FE85EAE570A0EBE57080B200F0E9FB002D06DD002000F052FC012000F083FD38BD002D06DA012000F0E8
:4002000049FC002000F07AFD38BD002000F042FC002000F073FD38BD0023024A1360024A136070476082FF1F5C82FF1F10B4084C23681844074B1860074A13681944074BA2
:4002400019600023236013605DF8044B704700BF6082FF1F7C82FF1F5C82FF1F3082FF1F054B1968054A12680A441A605968044A12680A445A607047C481FF1F7C82FF1FC1
:400280003082FF1F08B500F0F5FE40428001044B186000F043FE40428001024B186008BD4482FF1F6482FF1F10B40F4C22680F4B1A600F490A680F4B1A600F4803680F4A28
:4002C00012689A1A226043680D4800681B1A0B600C4801680A4402600B490A6813440B605DF8044B704700BF5882FF1F5482FF1F6882FF1F5082FF1FC481FF1F6482FF1FEC
:400300004482FF1F7082FF1F7482FF1F2DE9F04F83B0454BD3F800A0DFF830B1DBE90067504601F00BFA32463B4601F06DFA80468946DBE904453D4B186801F0FFF9224677
:400340002B4601F061FA02460B464046494601F0A9F8CDE90001364B1868DBE90289C0EB0A0001F0EBF942464B4601F04DFA02460B46DDE9000101F095F801F057FC2D4B04
:40038000186010F5803F02DC2B4A1A6006E0B0F5803F03DB4FF6FF72264B1A60274BD3F800A0504601F0CAF902460B463046394601F02AFA06460F46214B186801F0BEF96C
:4003C00002460B462046294601F01EFA02460B463046394601F066F804460D46194B1868C0EB0A0001F0AAF902460B464046494601F00AFA02460B462046294601F052F893
:4004000001F014FC104B186010F5803F02DC0A4A1A6006E0B0F5803F03DB4FF6FF720A4B1A6003B0BDE8F08F5882FF1F7082FF1F5482FF1F4082FF1F0100FFFF6882FF1F11
:400440007482FF1F5082FF1F4882FF1F1081FF1F08B56C20044B1968FFF792FE7220034B1968FFF78DFE08BD4082FF1F4882FF1F08B5074A136801331360FFF7F1FEFFF7C8
:4004800001FFFFF711FFFFF741FFFFF7E1FF08BD8482FF1F10B586B0104B1A68104C114B1B681149096800911049096801911049096810480068091A029103920E490968D9
:4004C000511A04910D490968059120460C4901F019FC204600F0B2FB06B010BD5882FF1FF481FF1F4082FF1F6482FF1FC481FF1F8482FF1F3C82FF1F5482FF1F7082FF1F82
:40050000A42600002DE9F04105460E4600F068FB002447E000F01CFB10B900F02DFB10B10122224B1A70214B1B78002B3AD00A2000F094FC1E481F494FF4806201F006FCE6
:40054000ACB9DFF86C80404601F098FB286000F047FB194F174839464FF4806201F0F6FB404639464FF4806201F0F0FB16E0012C14D1DFF83C80404601F080FB306000F02F
:400580002FFB0D4F0B4839464FF4806201F0DEFB404639464FF4806201F0D8FB0022034B1A700134012CB5DDBDE8F0818C86FF1F8C82FF1F9086FF1FC0260000F8B5054694
:4005C00000F00EFB00242DE000F0C2FA10B900F0D3FA10B10122154B1A70144B1B780BB30A2000F03BFC124812494FF4806201F0ADFB9CB90E4F384601F040FB286000F089
:40060000EFFA0D4E0B4831464FF4806201F09EFB384631464FF4806201F098FB0022034B1A700134002CCFDD0020F8BD8C86FF1F8C82FF1F9086FF1FC026000008B501F05F
:4006400021FB03680C2B00D1FEE7FEE708B5094B1A681044084BC31A802B02DC054B186005E001F00FFB0C2303604FF0FF32104608BD00BF2881FF1F988AFF1F08B5104EDB
:40068000104D16E029686B68AC68002204E051F8040B43F8040B0432A242F8D1E868002203E0002143F8041B04328242F9D11035013E002EE6D101F0EBFAFFF715FDFEE724
:4006C000010000004428000008B5124A124B1A60124A136843F40073136000230AE0032B03D80F4A52F8231000E00E490E4A42F8231001332F2BF2D90C4B1A780C4B1A709E
:40070000094A0C4B1A6000F0BDF800220A4B1A6008BD00BF0004FA050CED00E014ED00E0000000003D0600000080FF1FBC7600400481FF1F08ED00E00081FF1FFEE700BFB0
:40074000F0B40022174611E050F82760F3B226F0FF0608E001EB420511F812406D78A5550132013BDBB2002BF4D10137242FEBD9F0BC7047064B1B78DBB203F00701054A28
:4007800011701B09013213704422034B1A707047CF0100496E5800407658004008B50A46002101F0A6FA08BD38B50122284B1A80182328490B7002310A80274A13703321EF
:4007C00002321180023213700222244B1A7008224FF040231A70032103F500731970204B1B78DBB21F490B701F4B1A8041F25122023B1A80002419250CE01C4B1B7803F0C8
:40080000010343EA440404F003044FF4F07000F033FE013D0DB1032CEFD115B90320FFF78DFF134B4FF480721A8007221A70002210490A704820023108701A700222033B4E
:400840001A700D4A137843F00703137038BD00BF8040004082400040864000400043004008010049A146004022420040254200400440004006400040A243004008B501F06C
:400880002DFA08BD38B572B62F4A137843F00403137000240CE02D4963001A1952000A4423445B00C8589188FFF778FF0134E4B2052CF0D94FF090402549FFF741FF254A6B
:4008C000137843F0020313701032137843F002031370214C237843F040032370A2F58632513A137843F0100313701C481C490822FFF7C4FF1B481C490A22FFF7BFFF1B4834
:400900001B490822FFF7BAFF1A481B490822FFF7B5FF8422194B1A70194A137843F008031370184D61232B70FFF73EFF81232B700122154B1A70FFF71DFF144821460E2295
:40094000FFF79CFF38BD00BFE8460040C42600009400004803500140A043004002510040DC0C0048C0510040E40C0048F2510040F00C004812510040F80C00485B0C01409D
:40098000224300400048004004000840B0430040024A137843F080031370704775640040014B1880704700BF08680040014B1880704700BF88680040014B1880704700BFBD
:4009C00048680040014B1870704700BF85640040014B1878704700BF65640040014B188880B27047A868004008B501E0FFF7F6FFFFF7EEFF10F0100FF8D108BD10B5154AD7
:400A0000137803F0C00343F0090313701F32137843F001031370104C237843F0010323704FF6FF70FFF7BCFF4FF6FF70FFF7BEFF7F20FFF7C1FF0020FFF7C4FF00F024FD51
:400A4000237843F01003237000F022FDFFF7CCFF10BD00BF756400409564004008B5054B1B7823B9FFF7CAFF0122024B1A70FFF78FFF08BDCC81FF1F054A137843F001035A
:400A800013701032137843F001031370704700BFA2430040044A137803F0EF03000100F010001843107070470051004008B502200C4900F0E9F90220072100F0F9F900235A
:400AC000094A13707221094A11702421073A117006215B3A11704721103211705032137008BD00BF610C0000CE81FF1F8B65004010B500F0C9FC04460B4A137843F02003BD
:400B00001370073A137843F0100313700422074B1A60074A137843F01003137000F086F9204600F0B5FC10BD9B65004000E100E09965004008B5054B5B7823B9FFF7B6FF1D
:400B40000122024B5A70FFF7D3FF08BDCE81FF1F074B187800F07F00064BDB7913F0FF0F04D040F080000022024BDA71704700BF64650040CE81FF1F0422164B1A60164BAE
:400B80005A8892B29B889BB29A4207D1124B9B7913F0FF0F19D04FF4806017E00E4B5A8892B29B889BB29A4205D20B4A93885088181A80B20AE0084A908883B2508880B285
:400BC000181A00F5806080B200E000200422034B1A60704780E100E0CE81FF1F00E100E008B500F051FC0B4B1A7842F001021A701A7802F0FE021A7000F04AFC0421064B4D
:400C00001960064B00225A809A809A71DA71044B196008BD9865004080E100E0CE81FF1F00E100E0034B1B7813F0040FFAD1024B18707047696500404964004038B5074BBD
:400C40005B782BB938BDFFF7EDFF0134A4B201E005460024285D0028F5D138BDCE81FF1F1E4B1B78DBB213F01E0F05D01C4803F01E0201780A43027003F0200303F0FF02EF
:400C8000002B27D0174B1978C9B2174B1B889BB21648C154164B1B7813F0FF0F02D00121144B197010490B8801339BB20B800B889BB2B3F5806F02D300210B4B19800A4B55
:400CC000198889B20C4B1B889BB2994202D10121074B1970002AC3D1704700BF64650040CE81FF1F48650040D281FF1F9086FF1FD481FF1FD581FF1FD081FF1F044A1378BB
:400D000003F0DF03400100F0200018431070704700510040024A137843F080031370704776640040014B1880704700BF0C680040014B1880704700BF8C680040014B188009
:400D4000704700BF4C680040014B1870704700BF87640040014B1878704700BF67640040014B188880B27047AC68004008B501E0FFF7F6FFFFF7EEFF10F0100FF8D108BDF5
:400D800010B5154A137803F0C00343F0090313702032137843F001031370104C237843F0010323704FF6FF70FFF7BCFF4FF6FF70FFF7BEFF7F20FFF7C1FF0020FFF7C4FFBA
:400DC00000F062FB237843F01003237000F060FBFFF7CCFF10BD00BF766400409764004008B5054B1B7823B9FFF7CAFF0122024B1A70FFF78FFF08BDD881FF1F044A137877
:400E000003F0FD03400000F0020018431070704700510040044A137803F0FB03800000F0040018431070704700510040054A137843F0040313701032137843F004031370E8
:400E4000704700BFA243004001BE7047024A137843F0010313707047F646004010B5044605E0084B186800F007FBA4F50044B4F5004FF6D8034B586800FB04F000F0FCFA5E
:400E800010BD00BF2C81FF1F70B504460E46074B1D681F2802D90020FFF7D6FF04F01F04103455F8240045F8246070BD08ED00E038B504460D46072902D90020FFF7C4FF37
:400EC0001F2C02D90020FFF7BFFF04F01F0000F1604000F564406D01EDB2057038BD00BF044A137803F0F703C00000F008001843107070470051004008B50122054B1A603A
:400F000000200549FFF7C0FF00200721FFF7D0FF08BD00BF80E100E0F50F000010B50124064B1C6000F04CF9A0F5004000B2044B1B68044A1460184410BD00BF80E100E088
:400F4000DC81FF1F00E100E038B505460124054B1C604FF4004000F02DF9034B1D60034B1C6038BD80E100E0DC81FF1F00E100E0024B187800F00F00704700BF6E64004008
:400F800040F00700014B1870704700BF8E64004008B50F20FFF7F4FFFFF7EAFF00F074FA054A137843F01003137000F071FA0122024B1A6008BD00BF9E64004000E100E0FD
:400FC00008B500F04FF94FF4004000F0F3F80022064B1A60064B1B7823B9FFF78DFF0122034B1A70FFF7D4FF08BD00BFDC81FF1FD981FF1F0D4B1B78DBB213F0010F06D0D3
:401000000B490A6802F5FF427F320A6007E013F0020F04D006490A68A2F500420A6013F0040F02D00022024B1A6070476E640040DC81FF1F054A137843F0020313701032D8
:40104000137843F002031370704700BFA243004008B50222054B1A6001200549FFF714FF01200721FFF724FF08BD00BF80E100E04D11000010B50224064B1C6000F01AF92C
:40108000A0F5004000B2044B1B68044A1460184410BD00BF80E100E0E481FF1F00E100E038B505460224054B1C604FF4004000F0FBF8034B1D60034B1C6038BD80E100E04D
:4010C000E481FF1F00E100E0024B187800F00F00704700BF6964004040F00700014B1870704700BF8964004008B50F20FFF7F4FFFFF7EAFF00F0C8F9054A137843F010031A
:40110000137000F0C5F90222024B1A6008BD00BF9964004000E100E008B500F01DF94FF4004000F0C1F80022064B1A60064B1B7823B9FFF78DFF0122034B1A70FFF7D4FF2F
:4011400008BD00BFE481FF1FE081FF1F0D4B1B78DBB213F0010F06D00B490A6802F5FF427F320A6007E013F0020F04D006490A68A2F500420A6013F0040F02D00022024B45
:401180001A60704769640040E481FF1F024A137843F080031370704773640040014B1870704700BF8F640040014B1878704700BF6F640040014B1880704700BF1C68004090
:4011C000024B1B78024B188880B270470E6400409C680040014B188880B270479C680040014B1880704700BF5C680040014B1880704700BF7C68004008B501E0FFF7EAFFD1
:40120000FFF7D2FF10F0400FF8D108BD08B5134B1A7802F0F8021A701A7802F0FC021A70FFF7EAFF4FF40040FFF7DAFF4FF40040FFF7C0FF0020FFF7B1FFFFF7B5FF4FF4BF
:401240000040FFF7D3FF00F01FF9054A137843F01003137000F01CF908BD00BF736400409F64004008B5054B1B7823B9FFF7CEFF0122024B1A70FFF789FF08BDE881FF1FD5
:40128000024A137843F080031370704778640040014B1870704700BF8C640040014B1878704700BF6C640040014B1880704700BF14680040024B1B78024B188880B27047A3
:4012C0000A64004094680040014B188880B2704794680040014B1880704700BF54680040014B1880704700BF7468004008B501E0FFF7EAFFFFF7D2FF10F0400FF8D108BD06
:4013000008B5134B1A7802F0F8021A701A7802F0FC021A70FFF7EAFF4FF40040FFF7DAFF4FF40040FFF7C0FF0020FFF7B1FFFFF7B5FF4FF40040FFF7D3FF00F0A5F8054A7E
:40134000137843F01003137000F0A2F808BD00BF786400409C64004008B5054B1B7823B9FFF7CEFF0122024B1A70FFF789FF08BDE981FF1F014B1B68D864704708ED00E014
:401380004001C0B2014B1870704700BF03E400E00822014B1A60704700E100E00822014B1A60704780E100E010B50446FFF7F6FF2046FFF7DFFF0720FFF7E2FFFFF7E8FF0A
:4013C00010BD00BF024A137843F080031370704776650040014B1870704700BF87650040014B1878704700BF67650040014B1860704700BF24650040014B1868704700BF66
:4014000044650040014B1860704700BF0465004008B501E0FFF7F0FFFFF7E2FF10F0080FF8D108BD08B542F6DF60FFF7DFFF42F6DF60FFF7E7FF00F027F8064A137843F069
:401440001003137000F024F8FFF7E2FF0120FFF7C1FF08BD9765004008B5054B1B7823B9FFF7E0FF0122024B1A70FFF7ABFF08BDEA81FF1F000000000230800803D000BF96
:4014800001380046FCD17047EFF3108072B6704780F31088704700BF81F0004102E000BF83F0004330B54FEA41044FEA430594EA050F08BF90EA020F1FBF54EA000C55EA1F
:4014C000020C7FEA645C7FEA655C00F0E2804FEA5454D4EB5555B8BF6D420CDD2C4480EA020281EA030382EA000083EA010180EA020281EA0303362D88BF30BD11F0004FF0
:401500004FEA01314FF4801C4CEA113102D0404261EB410113F0004F4FEA03334CEA133302D0524263EB430394EA050F00F0A780A4F10104D5F1200E0DDB02FA0EFC22FA8F
:4015400005F2801841F1000103FA0EF2801843FA05F359410EE0A5F120050EF1200E012A03FA0EFC28BF4CF0020C43FA05F3C01851EBE37101F0004507D54FF0000EDCF143
:40158000000C7EEB00006EEB0101B1F5801F1BD3B1F5001F0CD349085FEA30004FEA3C0C04F101044FEA445212F5800F80F09A80BCF1004F08BF5FEA500C50F1000041EB7B
:4015C000045141EA050130BD5FEA4C0C404141EB010111F4801FA4F10104E9D191F0000F04BF01460020B1FA81F308BF2033A3F10B03B3F120020CDA0C3208DD02F1140CB9
:40160000C2F10C0201FA0CF021FA02F10CE002F11402D8BFC2F1200C01FA02F120FA0CFCDCBF41EA0C019040E41AA2BF01EB0451294330BD6FEA04041F3C1CDA0C340EDCF1
:4016400004F11404C4F1200220FA04F001FA02F340EA030021FA04F345EA030130BDC4F10C04C4F1200220FA02F001FA04F340EA0300294630BD21FA04F0294630BD94F017
:40168000000F83F4801306BF81F480110134013D4EE77FEA645C18BF7FEA655C29D094EA050F08BF90EA020F05D054EA000C04BF1946104630BD91EA030F1EBF0021002068
:4016C00030BD5FEA545C05D14000494128BF41F0004130BD14F580043CBF01F5801130BD01F0004545F0FE4141F470014FF0000030BD7FEA645C1ABF194610467FEA655CC5
:401700001CBF0B46024650EA013406BF52EA033591EA030F41F4002130BD00BF90F0000F04BF0021704730B54FF4806404F132044FF000054FF0000150E700BF90F0000F94
:4017400004BF0021704730B54FF4806404F1320410F0004548BF40424FF000013EE700BF42004FEAE2014FEA31014FEA02701FBF12F07F4393F07F4F81F06051704792F0E3
:40178000000F14BF93F07F4F704730B54FF4607401F0004521F0004120E700BF50EA010208BF704730B54FF000050AE050EA010208BF704730B511F0004502D5404261EB9C
:4017C00041014FF4806404F132045FEA915C3FF4DCAE4FF003025FEADC0C18BF03325FEADC0C18BF033202EBDC02C2F1200300FA03FC20FA02F001FA03FE40EA0E0021FAAF
:4018000002F11444C1E600BF70B54FF0FF0C4CF4E06C1CEA11541DBF1CEA135594EA0C0F95EA0C0F00F0DEF82C4481EA030621EA4C5123EA4C5350EA013518BF52EA03355B
:4018400041F4801143F4801338D0A0FB02CE4FF00005E1FB02E506F00042E0FB03E54FF00006E1FB03569CF0000F18BF4EF0010EA4F1FF04B6F5007F64F5407404D25FEA3C
:401880004E0E6D4146EB060642EAC62141EA55514FEAC52040EA5E504FEACE2EB4F1FD0C88BFBCF5E06F1ED8BEF1004F08BF5FEA500E50F1000041EB045170BD06F0004650
:4018C00046EA010140EA020081EA0301B4EB5C04C2BFD4EB0C0541EA045170BD41F480114FF0000E013C00F3AB8014F1360FDEBF002001F0004170BDC4F10004203C35DA26
:401900000C341BDC04F11404C4F1200500FA05F320FA04F001FA05F240EA020001F0004221F0004110EBD37021FA04F642EB06015EEA430E08BF20EAD37070BDC4F10C04C0
:40194000C4F1200500FA04F320FA05F001FA04F240EA020001F0004110EBD37041F100015EEA430E08BF20EAD37070BDC4F1200500FA05F24EEA020E20FA04F301FA05F2DD
:4019800043EA020321FA04F001F0004121FA04F220EA020000EBD3705EEA430E08BF20EAD37070BD94F0000F0FD101F00046400041EB010111F4801F08BF013CF7D041EADD
:4019C000060195F0000F18BF704703F00046520043EB030313F4801F08BF013DF7D043EA0603704794EA0C0F0CEA135518BF95EA0C0F0CD050EA410618BF52EA4306D1D1DD
:401A000081EA030101F000414FF0000070BD50EA410606BF1046194652EA430619D094EA0C0F02D150EA013613D195EA0C0F05D152EA03361CBF104619460AD181EA0301B0
:401A400001F0004141F0FE4141F470014FF0000070BD41F0FE4141F4780170BD70B54FF0FF0C4CF4E06C1CEA11541DBF1CEA135594EA0C0F95EA0C0F00F0A7F8A4EB05045D
:401A800081EA030E52EA03354FEA013100F088804FEA03334FF0805545EA131343EA12634FEA022245EA111545EA10654FEA00260EF000419D4208BF964244F1FD0404F5B8
:401AC000407402D25B084FEA3202B61A65EB03055B084FEA32024FF480104FF4002CB6EB020E75EB030E22BFB61A754640EA0C005B084FEA3202B6EB020E75EB030E22BFBD
:401B0000B61A754640EA5C005B084FEA3202B6EB020E75EB030E22BFB61A754640EA9C005B084FEA3202B6EB020E75EB030E22BFB61A754640EADC0055EA060E18D04FEA98
:401B4000051545EA16754FEA06164FEAC30343EA52734FEAC2025FEA1C1CC0D111F4801F0BD141EA00014FF000004FF0004CB6E711F4801F04BF01430020B4F1FD0C88BF69
:401B8000BCF5E06F3FF6AFAEB5EB030C04BFB6EB020C5FEA500C50F1000041EB045170BD0EF0004E4EEA113114EB5C04C2BFD4EB0C0541EA045170BD41F480114FF0000EA8
:401BC000013C90E645EA060E8DE60CEA135594EA0C0F08BF95EA0C0F3FF43BAF94EA0C0F0AD150EA01347FF434AF95EA0C0F7FF425AF104619462CE795EA0C0F06D152EA78
:401C000003353FF4FDAE1046194622E750EA410618BF52EA43067FF4C5AE50EA41047FF40DAF52EA43057FF4EBAE12E74FEA410212F5001215D211D56FF47873B3EB6252D4
:401C400012D94FEAC12343F0004343EA505311F0004F23FA02F018BF404270474FF00000704750EA013005D111F0004008BF6FF0004070474FF00000704700BF00210A2210
:401C800000F0FCB8014B1868704700BF9C81FF1F0E4B70B51E460E4C0025E41AA410A54204D056F8253098470135F8E700F0B8FD084B094C1E46E41AA4100025A54204D05B
:401CC00056F8253098470135F8E770BD2C2800002C2800002C2800003428000010B5431E0A44914204D011F8014B03F8014FF8E710BD03460244934202D003F8011BFAE733
:401D0000704700000EB400B54FF402719CB0ADF814106FF00041049107914FF6FF711DABADF81610084953F8042B02900690086802A9019300F060F9029B00221A701CB095
:401D40005DF804EB03B070479C81FF1F034610B532B111F8014B013A03F8014B002CF7D11A44934203D0002103F8011BF9E710BD2DE9F0470F46404CD4F800903D4615F8B9
:401D800001EB09EB0E04667806F0080404F0FF060CB12F46F2E774462D2C03D1BD1C7C78012603E02B2C04BF7C78BD1C13B1102B0AD15AE0302C56D12C7804F0DF04582C12
:401DC0004CD16C7810230235002E14BF4FF000486FF00048B8FBF3FA0027BE4603FB1A8809EB040C9CF801C01CF0040F01D0303C0BE01CF0030C1BD0BCF1010F0CBF4FF071
:401E0000370C4FF0570CCCEB04049C4210DAB7F1FF3F0AD0D64506D801D1444503DC03FB0E4E012701E04FF0FF3715F8014BD7E77C1C73460AD1002E4FF0220114BF4FF086
:401E400000436FF0004301602AB911E00EB1CEF100036AB107B1691E116009E03024002BB2D10823B0E70A23AEE7302CACD1A3E71846BDE8F08700BFA081FF1F30B5054682
:401E80000C461346034A294610682246BDE83040FFF76EBF9C81FF1F70B5CC1C24F0030408340C2C38BF0C24002C064603DA0C233360002070BD8C42F9D3204A136810466C
:401EC0001946A1B10A68121B0ED40B2A03D90A608B188C501FE08B420BBF5A684A6802605A6018BF0B4616E00B464968E9E7144D2B681BB9304600F007FB2860304621460B
:401F000000F002FB421C0346D1D0C51C25F0030585420AD11C6003F10B001A1D20F00700821A0AD05142995070BD3046E91A00F0EBFA0130BBD02B46ECE770BDF081FF1FDA
:401F4000EC81FF1F2DE9F0478E688246B3420C469046994640D38A8912F4906F3AD02568096902236F1A656905EB450595FBF3F57B1C4B449D4238BF1D4653050FD5294663
:401F8000FFF78AFF064698B121693A46FFF7A6FEA38923F4906343F08003A38113E02A4600F030FB064670B95046216900F0E6FA0C23CAF80030A3894FF0FF3043F0400345
:401FC000A381BDE8F08726613E4426604E466561ED1BA560B14500D24E4632462068414600F0B0FAA36800209B1BA36023681E442660BDE8F08700002DE9F0439DB003938F
:402000008B8906461C060D4690460CD50B6953B94021FFF741FF2860286110B90C233360CCE040236B610023099320238DF8293030238DF82A3043461C4613F8012B1AB97F
:40204000B4EB08090FD002E0252AF5D1F8E73046294642464B46FFF775FF013000F0A980099B4B4409932378002B00F0A28000234FF0FF3204930793059206938DF85330A6
:402080001A9304F101084446DFF8489121784846052200F049FA08F10108049B30B1C9EB00000122824013430493ECE7D80644BF20228DF85320190744BF2B228DF853205C
:4020C00022782A2A02D0079923460EE0039A0134111D12680391002ABBBF524243F0020307920792B8BF04930AE01C4622780133303A092A03D80A2000FB0121F5E707911E
:4021000023782E2B1AD163782A2B0AD1039B02341A1D1B680392002BB8BF4FF0FF3305930CE0611C00220C4623780131303B092B03D80A2000FB0232F5E70592DFF8988008
:4021400021784046032200F0EFF938B1049AC8EB00004023834013430493013421781A48062204F101088DF8281000F0DDF988B1164B33B9039B073323F0070308330393D1
:4021800013E003AB0093304604A92A46104BAFF3008007E003AB0093304604A92A460C4B00F092F8421C074603D0099B3B44099341E7AB895B0601D4099801E04FF0FF3090
:4021C0001DB0BDE8F08300BFF527000000000000451F0000EB270000F12700002DE9F84391461F468A680B6906469342B8BF1346C9F8003091F843200C46DDF8208012B146
:402200000133C9F800302368990642BFD9F800300233C9F80030256815F006051CD094F843302268003318BF012392061FD5E118302081F843005A1C94F845102244023364
:4022400082F8431013E03046394604F119020123C047013007D00135E368D9F800209B1A9D42F0DBDBE74FF0FF30BDE8F8833046394604F14302C0470130F4D02268D9F8BF
:402280000050E36802F00602042A08BF5D1B2269A3680CBF25EAE57500259342C4BF9B1AED184FF00009A9450ADA3046394604F11A020123C0470130D5D009F10109F2E71D
:4022C0000020BDE8F88300002DE9FF410C461746227E98466E2A06460A9B01F1430100F0B08012D8632A23D00AD8002A00F0BD80582A40F0CC8084F84520DFF804E257E0C6
:40230000642A1ED0692A1CD0C1E0732A00F0B18009D86F2A2ED0702A40F0B980226842F0200222603FE0752A24D0782A3BD0AEE01A6804F14205111D1960136884F84230AD
:40234000A9E020681A6810F0800F02D0101D186008E010F0400F02F10400186002D0B2F9003000E01368002B3EDA2D225B4284F8432039E020681A6810F0800F02D0101D57
:40238000186007E010F0400F02F10400186001D0138800E01368227EDFF864E16F2A0CBF08220A221CE07822DFF858E184F845202268186812F0800F00F104051D6003D156
:4023C000550601D5038800E00368D00744BF42F0200222601BB9226822F0200222601022002084F8430002E0DFF814E10A226568002DA8BF2068A560A4BF20F00400206042
:4024000003B965B10D46B3FBF2F002FB10331EF8033005F8013D03460028F4D100E00D46082A0BD12368DA0708D5236962689A42DEBF302305F8013C05F1FF35491B2161F7
:402440002EE025681A6815F0800F606903D0151D1D60136808E015F0400F02F104051D60136801D0188000E01860002323610D4616E01A68111D1960156800212846626805
:4024800000F052F808B1401B6060636804E004F1420584F8422001232361002384F84330CDF800803046214603AA3B46FFF796FE013002D14FF0FF301FE0304639462A46DB
:4024C0002369C0470130F5D023689B0705D4E068039B9842B8BF18460FE00025E368039A9B1A9D42F3DA3046394604F119020123C0470130DED00135F0E704B0BDE8F08175
:40250000FC2700000D28000038B5064C0023054608462360FEF79AF8431C02D1236803B12B6038BD908AFF1F10B5C9B202449042034605D01C7801308C42F8D1184610BD18
:40254000002010BD814210B501EB020301D3421E0BE09842FBD28118D21AD34204D013F8014D01F8014DF8E710BD994204D011F8014B02F8014FF8E710BD000030B500296D
:402580003CD051F8042C0B1F1D49002AB8BF9B180A680C4612B95A600B6030BD93420DD219685818904201BF5A5852181A60426823605A6030BD994203D80A465168002988
:4025C000F9D1146815199D420AD11B682344D0188842136012D10868034413604B680CE002D90C23036030BD1C681819884201BF08684968001918605960536030BD00BF8F
:40260000F081FF1FF8B5074615460E4621B91146BDE8F840FFF740BC1AB9FFF7AFFF2846F8BD00F015F8A8420ED238462946FFF733FC044650B131462A46FFF74FFB3846FF
:402640003146FFF79BFF01E03046F8BD2046F8BD51F8040C0028BEBF091851F8043CC01804387047000000002D2D2D2D2D205265736574202D2D2D2D2D0A00002D2D2D2DF6
:402680002D205370656564202D2D2D2D2D0A00002D2D2D2D2D20416E676C65202D2D2D2D2D0A000025647C25647C256C647C256C647C256C647C25647C25647C25640A00E4
:4026C0000000000020510040500000000140001000140140000800400140000A004C0140000200500140200043000020202020202020202028282828282020202020202055
:402700002020202020202020202020881010101010101010101010101010100404040404040404040410101010101010414141414141010101010101010101010101010195
:4027400001010101010110101010101042424242424202020202020202020202020202020202020202021010101020000000000000000000000000000000000000000000DF
:402780000000000000000000000000000000000000000000000000000000000000000000000000000000000000000000000000000000000000000000000000000000000019
:4027C00000000000000000000000000000000000000000000000000000000000000000000000000000000000000000232D302B2000686C4C00656667454647003031323324
:402800003435363738394142434445460030313233343536373839616263646566000000F8B500BFF8BC08BC9E4670474D000000C9060000F8B500BFF8BC08BC9E46704740
:4028400029000000582800000881FF1FA0000000F008000000000000000000000000000000000000000059400000000000408F409A9999999999B93F988AFF1F0000E02EEB
:40288000C05D00001800000000366E010000000000000000000000000000000000000000000000000000000000000000E82600000000000000000000000000000000000030
:4028C00000000000000000000000000000000000000000000000000000000000000000000000000000000000000000003C81FF1FEA260000000000000000000000000000ED
:402900000000000000000000000000000000000000000000000000000000000000000000000000000000000000000000000000000000000000000000000000000000000097
:402940000000000000000000000000000000000000000000000000000000000000000000000000000000000000000000000000000000000000000000000000000000000057
:402980000000000000000000000000000000000000000000000000000000000000000000000000000000000000000000000000000000000000000000000000000000000017
:4029C00000000000000000000000000000000000000000000000000000000000000000000000000000000000000000000000000000000000000000000000000000000000D7
:020000040003F7
:0200000480007A
:40000000045200400664004004650040010101403302014023030140570401403C050140550601403107014051080140440901406C0A0140470B0140490C0140400D0140EE
:40004000610E0140320F01403E1401403015014041160140251701406C1801403F190140421A0140441B01400740014009410140034201400343014006460140024701404E
:400080000B48014004490140074D014008500140015101400001014061806440850D870D890F8C6F8E0F8F6F8438870D890F8B72E60116011A01360158045F018320841E0C
:4000C0008504871289108A208C188D028E068F049014920A940E970899109A019C069E18A040A110A40AA502A614A704A910AA40AD02AE40AF05B020B101B201B330B41EFB
:40010000B506B640B708BB20BE40D280D804D904DB04DC11DD10DF0102010328088009100A600D080F0810021288130419841A041B391F4020402288230C288029142B01F2
:4001400032083320386039023B04700281808740C007C26FC40FCA0FCC06CE0FE004040C05960602076809A30B5C14071701197F1A0F1C081E01210E23F0240B25FE260445
:400180002701280C29C52A012B3A31FF340F3F014030410249FF4AFF4BFF4DA04F045018580459045A045C015F01604062C06440654066C068C06AC06CC06EC087018B02B6
:4001C0009A02A501AB02AE01B201B402B502B701BF10C030C102C5D0C620C701C81AC9FFCAFFCBFFCDAFCE0FCF04D018D280D405D804D904DA04DB04DF01E040E2C0E4400C
:40020000E540E6C0E8C0EAC0ECC0EEC0000408800A200B040F08101011101740180419101D081F18210126402708289029102B102F183218382039103B043E203F084128D0
:4002400045284F015520562057045E805F0977408020902092049304950296609C809D10A208A310A508A704B204B308B410B510B601C004C247C486CA67CC06CE66D066C1
:40028000D6D0E2010201150116021B032A0231013201340235024030410549FF4AFF4BFF4DA04F0450185280580459045A045B045F01604062C06440654066C068C06AC004
:4002C0006CC06EC08001820283048418900292019301940C970498149C019E029F02A001A202A818B003B102B21CB304B701B808BA02BF04C030C105C5D0C610C720C82A1D
:40030000C9FFCAFFCBFFCDAFCE0FCF04D018D405D804D904DA04DB04DC11DF01E040E2C0E440E540E6C0E8C0EAC0ECC0EEC00004028006800AA60D081110130115201AA0E0
:400340001D081F20220523012748310832813620370839024108450849014A024E025111522259015A085B40768082509004911092049620A020AC80B404B640C01CC22F4A
:40038000C44ACC6BCE01D042D218D60BE405EE020201057F060208010C08100111C5133A15FE160C1701181019A31B5C1C101D961F682001241028012B012D0E2E082FF04B
:4003C0003004320333FF3410360838203E503F045280580459045B045C015D105F01850388038A0C8B038C038E049E08A003A204A40AA604A902AA05AB01B20FB502B701CE
:40040000BA08BF50C036C105C5E0C6BCC80EC9FFCAFFCBFFCEF0CF44D00CD40FD604D804D904DA04DB04DC02DD12DF01E6C0EA40EB0200100202044007680A020E640F0138
:40044000108812201620179218301C421D201E201F04225027202B042E402F043528375A38043B203E04401048084A82508052105AA5608077808002811083418A018B08D6
:40048000900492449301970299289A209B029C0A9D109F40A304A401A520A605AE20B420B601B708C0F3C2F1C4FECA34CCF0CE46D002D20CD60FD801EC4000050102020AE3
:4004C0000304080C0A031003120C140F15021714180719041B021D021F0C200A220527013108320F3301350637103B204052410349FF4AFF4BFF4DA04F0150185804590488
:400500005A045C115D015F016040628064406540668068406A806C406D206E8083308510860F887389048C9E8D078E6090CF923093049430950196C9970298949A609B07E5
:40054000A308A4FDA501A602A702AD07B30FB520B6FFB710BE40BF40C052C103C53CC620C74EC83BC9FFCAFFCBFFCDAFCE07CF01D018D804D904DA04DC10DD01DF01E040DA
:40058000E280E440E540E680E840EA80EC40ED20EE80012003400510060107200A640C010D120F1013021610190C1A201F402119226024042648272028202F61310832605C
:4005C00033203401372839123A203C043D803F124120421043044520470448014A024E024F05562857018301925493109530970699209A109B029C0A9D149E09A142A30471
:40060000A64DB001B140B250B310B702C0EAC27EC428CAD2CCEECEF1D066D218ECA0EE5000080201033C0450050208070C600D200F04100C1130120213081460152C17100A
:4006400018302303240B251C260429302A0F2B042C0C2E01300F330134703502373C38203F10540F580459045B045C115D105F05847785CF873088C08A248C848D948E105E
:400680008F609001919E92F2936095FD9607970299739A08A0C1A212A8B7AA40AB0FAD30AFC9B20FB4F0B5FFBF10D804D904DC01DF0101A0032005140640070609200A5020
:4006C0000D020E040F201004130215201611180819201A101B141D021E041F222120240425042703280229802B052D212F203004310433213504370238883D083E403F02A2
:400700005D105E8A660867047F208310908091019240940497029C099F14A608B212B312C0F7C27EC4EACAECCCC7CEDAD6F0D860DE401002120114011502160A17011801D1
:400740001A021C011E061F032503300334043502360837013A023F504023410649FF4AFF4BFF4DA04F015018540F5604580459045A045B045C015D115F0160406280644041
:400780006540668068406A806C406D206E8081018B029008950296019C02A101AC02AD01AE0CB004B201B301B408B602B702B880B908BE10BF44C023C106C53CC640C72E12
:4007C000C83BC9FFCAFFCBFFCDAFCE07CF01D018D40FD804D904DA04DB04DC01DD11DF05E040E280E440E540E680E840EA80EC40ED20EE8008080A450D020F2216021880D1
:400800001A451D861F1022502508264029042E022F013180320835043F2241084310450847104A084D014E084F06560A571058015AA05B045C045EA05F02608066086704F4
:400840007F018080C2BFC480CA92CC4ACEA0D066D224D6FFD861DE100301060109020A0210021102140215021E01210222022701320233023501360138083E403F144016EC
:4008800049FF4AFF4BFF4F01501854185604580459045A045B045C025D205F016040624064406540668068806A806C806E80C016C9FFCAFFCBFFCD83CE03CF01D018DA0429
:4008C000DF01E040E240E440E540E680E880EA80EC80EE800018080109881102194820202304288029083001310838103B014340474048084C085902614063848080810114
:4009000083408414880189028C108D0893019B40A008A188AA10B180B208C006C20DC408CA03CC03CE05D018D224D601D80DE008E603EC8413013701401649FF4AFF4BFF0A
:400940004D834E034F015018528059045A045B045C105F016040624064406540668068806A806C806E80800197019F01A605AA02B004B101B202B601BB08BE40BF01C01691
:40098000C5ECC702C813C9FFCAFFCBFFCD83CE03CF01D018D401D604D804D904DA04DB04DC21DF01E040E240E440E540E680E880EA80EC80EE80010210201208180219028D
:4009C0001A2021082380268030083340370243404740480849054C08500859055B806340774087408C018F03A020A680AB20C008C406CC8AD018D224D60BD801E010EE0289
:400A0000100111011326151417491C022402251F2605291F2D0A2F5130043160340235183601370738203E403F01404641024203440146E0470C481849FF4AFF4BFF4C6297
:400A40004DA04EF04F41500C580459045A045C215D025F016640670269106A306B106D106E106F1280108414875189D08B258C6C8DD08E118F2393269480962099A69A03E5
:400A80009B119C099D089E10A220A302A41CA662A870AA0CB020B107B308B41FB533B6C0B7C0B880B980BB22BE01BF44C001C540C9FFCA07CBFFCC40CD20CEF0CF05D0080E
:400AC000D401D804D904DA04DB04DC22DD22DF01E040E1A8E240E32000400102021009080A060E800F0110801110122016201A461E821F10204021402236274A29022D8042
:400B00002F283291370A38683910414045024604474449024E08500C5108542458025A485B10600262808C208E0490209301960297209A309C08A080A280A408A627AC8035
:400B4000C00DC297C42ECA71CCCDCE0ED0F8D220D60FE040E610001C020206030A040C040E2010071218141F18401C1C1E01201024082818301F342036403A023E40580495
:400B80005C025F01800F810F8230840C8502880489068C118D098F0690339110920C940C96339A339B099C089D069F09A033A104A422A510A83FA910AD07AF08B00FB23042
:400BC000B310B507B70EBA02BB80D602D711D804D904DB04DC22DD20DF0101A20310040205800628080409820A040C800E480F2010A0132014041604170A180119221A803E
:400C00001B021D021E6024022580266C27142C802F2A364037113E683F015F106F2974A076287720800181808620871089828A108E448F1192049B0A9D809E049F04A5024F
:400C4000A608A728A888AB10B004C0FFC2FFC47ECAF0CCB0CEF0D620E001E290E410E620EA2032403302364037028240CCF0E6805780631087109F02A640A702D440D840DE
:400C8000E2109F02A640A7829F02A640A782010206809E80B680C00CEE08B502EA020020041087028C109F02A702AB80AE40C0C0E640EE608302A702B010E220110171027B
:400CC00081028901C408DC01E601000708030A030C060E0210071A071C0600FF007F7F00410000008000408080008000000000003C00000000000000000B0B0000000000EC
:400D000000000000000000000000000000000000000000000000000000000000000000000000000000000000000000000000000000000000000000000000000000000000B3
:400D40000000000000000000000000000000000000000000000000000000000000000000000000000000000000000000000000000000000000000000000000000000000073
:400D80000000000000000000000000000000000000000000000000000000000000000000000000000000000000000000000000000000000000000000000000000000000033
:400DC00000000000000000000000000000000000000000000000000000000000000000000000000000000000000000000000000000000000000000000000000000000000F3
:0200000490006A
:0400000000004005B7
:0200000490105A
:04000000BC90ACAF55
:0200000490303A
:0200000086A9CF
:0200000490402A
:4000000000000000000000000000000000000000000000000000000000000000000000000000000000000000000000000000000000000000000000000000000000000000C0
:400040000000000000000000000000000000000000000000000000000000000000000000000000000000000000000000000000000000000000000000000000000000000080
:400080000000000000000000000000000000000000000000000000000000000000000000000000000000000000000000000000000000000000000000000000000000000040
:4000C0000000000000000000000000000000000000000000000000000000000000000000000000000000000000000000000000000000000000000000000000000000000000
:0200000490501A
:0C00000000012E16106900012E29971235
:00000001FF