:400000000080002011000000B9070000B907000008B5044B1A6803F53F5302331A6000F0EBFB00BFFA46004010B5054C237833B9044B13B10448AFF300800123237010BD11
:40004000C081FF1F000000006C440000084B10B51BB108480849AFF300800848036803B910BD074B002BFBD0BDE81040184700BF000000006C440000C481FF1F0881FF1F71
:400080000000000008B51E2000F034FA01F066FA08BD00BF08B500F09FFD00F05FFF00F007FE01F085F800F0A5FD01F047F801F02DF84FF47A7000F08FFF002001F002F8CA
:4000C0004FF47A7000F088FF01F0E4F801F0CAF84FF47A7000F080FF002001F09FF801F079FA01F013FA08BD10B58EB062B6FFF7D1FF324801F016FA42F6E06001F034FA7E
:4001000000230D930C930BA800F016FB0B9B2BB92B4800F051FE00F057FFF4E7022B1AD1284800F049FE0DA80CA900F02DFA0D980C9900F0C7F8002400F0EEF900F0C6FD65
:4001400018B900F0D7FD10B902E0012400E00124002CF1D0D7E7012B12D11B4800F02CFE08A806A904AA00F06BFADDE90423CDE90023DDE90801DDE9062300F08DF8C2E7DA
:40018000032BC0D1114800F017FE03A802A900F0FBF90398029900F067F8002400F0BCF900F094FD18B900F0A5FD10B902E0012400E00124002CF1D0A5E700BF8500000024
:4001C000704400008444000098440000B044000038B504460D46722821D1012000F03EFF85EAE570A0EBE57080B200F065FE002D06DD002000F0C0FE012000F0C9FE0EE082
:40020000002D06DA012000F0B7FE002000F0C0FE05E0002000F0B0FE002000F0B9FE6C2C21D1012000F01AFF85EAE570A0EBE57080B200F07FFC002D06DD002000F0E8FCBA
:40024000012000F019FE38BD002D06DA012000F0DFFC002000F010FE38BD002000F0D8FC002000F009FE38BD064B1A68064B1A60064B186059600023054A1360054A13609E
:40028000704700BFB082FF1F5C82FF1FDC81FF1FA882FF1F5082FF1F10B4074CC4E900010649C1E90023064BDDE90101C3E900015DF8044B704700BFA082FF1F8882FF1FA0
:4002C0004082FF1F024B1860024B1960704700BFA882FF1F5082FF1F054B1968054A12680A441A605968044A12680A445A607047DC81FF1FA882FF1F5082FF1F08B500F0DB
:4003000077FF40428001044B186000F0C5FE40428001024B186008BD6482FF1F7C82FF1F10B40F4C22680F4B1A600F490A680F4B1A600F4803680F4A12689A1A226043688C
:400340000D4800681B1A0B600C4801680A4402600B490A6813440B605DF8044B704700BF7882FF1F7482FF1F8082FF1F7082FF1FDC81FF1F7C82FF1F6482FF1F9082FF1FEA
:400380009482FF1F2DE9F04782B0464BD3F800A0454BD3E90067504601F08CFA32463B4601F0EEFA80468946404BD3E90045404B186801F07FFA22462B4601F0E1FA024679
:4003C0000B464046494601F029F9CDE90001394B1868394BD3E90089C0EB0A0001F06AFA42464B4601F0CCFA02460B46DDE9000101F014F901F0D6FC304B186010F5803F4E
:4004000002DC2F4A1A6006E0B0F5803F03DB4FF6FF722A4B1A602B4BD3F800A0504601F049FA02460B463046394601F0A9FA06460F46254B186801F03DFA02460B46204699
:40044000294601F09DFA02460B463046394601F0E5F804460D461D4B1868C0EB0A0001F029FA02460B464046494601F089FA02460B462046294601F0D1F801F093FC144BB2
:40048000186010F5803F02DC0D4A1A6006E0B0F5803F03DB4FF6FF720D4B1A6002B0BDE8F08700BF7882FF1FA082FF1F4082FF1F9082FF1F7482FF1F8882FF1F6082FF1F70
:4004C0000100FFFF8082FF1F9482FF1F7082FF1F6882FF1F08B56C20044B1968FFF778FE7220034B1968FFF773FE08BD6082FF1F6882FF1F08B5074A136801331360FFF751
:40050000EBFEFFF7FBFEFFF70BFFFFF73BFFFFF7E1FF08BDB082FF1F10B586B0104B1A68104C114B1B681149096800911049096801911049096810480068091A0291039228
:400540000E490968511A04910D490968059120460C4901F097FC204600F02EFC06B010BD7882FF1F0C82FF1F6082FF1F7C82FF1FDC81FF1FB082FF1F5C82FF1F7482FF1F59
:400580009082FF1FC84400002DE9F04105460E4600F0E4FB002447E000F098FB10B900F0A9FB10B10122224B1A70214B1B78002B3AD00A2000F010FD1E481F494FF48062F6
:4005C00001F084FCACB9DFF86C80404601F015FC286000F0C3FB194F174839464FF4806201F074FC404639464FF4806201F06EFC16E0012C14D1DFF83C80404601F0FDFB49
:40060000306000F0ABFB0D4F0B4839464FF4806201F05CFC404639464FF4806201F056FC0022034B1A700134012CB5DDBDE8F081B886FF1FB882FF1FBC86FF1FAC44000083
:400640002DE9F84305460E46174600F087FB002465E000F03BFB10B900F04CFB10B10122314B1A70304B1B78002B58D00A2000F0B3FC2E482E494FF4806201F027FCBCB97D
:40068000DFF8A890484601F0B5FBC5E9000100F065FBDFF8A080264841464FF4806201F015FC484641464FF4806201F00FFC32E0012C17D1DFF87490484601F09BFBC6E9EE
:4006C000000100F04BFBDFF86C80194841464FF4806201F0FBFB484641464FF4806201F0F5FB18E0022C16D1DFF84090484601F081FBC7E9000100F031FBDFF838800C4892
:4007000041464FF4806201F0E1FB484641464FF4806201F0DBFB0022034B1A700134022C97DDBDE8F88300BFB886FF1FB882FF1FBC86FF1FAC440000F8B5054600F00EFB9A
:4007400000242DE000F0C2FA10B900F0D3FA10B10122154B1A70144B1B780BB30A2000F03BFC124812494FF4806201F0AFFB9CB90E4F384601F041FB286000F0EFFA0D4EB9
:400780000B4831464FF4806201F0A0FB384631464FF4806201F09AFB0022034B1A700134002CCFDD0020F8BDB886FF1FB882FF1FBC86FF1FAC44000008B501F023FB036807
:4007C0000C2B00D1FEE7FEE708B5094B1A681044084BC31A802B02DC054B186005E001F011FB0C2303604FF0FF32104608BD00BF0C81FF1FC08AFF1F08B5104E104D16E080
:4008000029686B68AC68002204E051F8040B43F8040B0432A242F8D1E868002203E0002143F8041B04328242F9D11035013E002EE6D101F0EDFAFFF757FCFEE701000000B1
:40084000CC47000008B5124A124B1A60124A136843F40073136000230AE0032B03D80F4A52F8231000E00E490E4A42F8231001332F2BF2D90C4B1A780C4B1A70094A0C4BCC
:400880001A6000F0BDF800220A4B1A6008BD00BF0004FA050CED00E014ED00E000000000B90700000080FF1FBC7600400481FF1F08ED00E00081FF1FFEE700BFF0B4002296
:4008C000174611E050F82760F3B226F0FF0608E001EB420511F812406D78A5550132013BDBB2002BF4D10137242FEBD9F0BC7047064B1B78DBB203F00701054A11701B09C8
:40090000013213704422034B1A707047CF0100496E5800407658004008B50A46002101F0A8FA08BD38B50122284B1A80182328490B7002310A80274A13703321023211804B
:40094000023213700222244B1A7008224FF040231A70032103F500731970204B1B78DBB21F490B701F4B1A8041F25122023B1A80002419250CE01C4B1B7803F0010343EADA
:40098000440404F003044FF4F07000F031FE013D0DB1032CEFD115B90320FFF78DFF134B4FF480721A8007221A70002210490A704820023108701A700222033B1A700D4A1F
:4009C000137843F00703137038BD00BF8040004082400040864000400043004008010049A146004022420040254200400440004006400040A243004008B501F02FFA08BDDE
:400A000038B572B62F4A137843F00403137000240CE02D4963001A1952000A4423445B00C8589188FFF778FF0134E4B2052CF0D94FF090402549FFF741FF254A137843F017
:400A4000020313701032137843F002031370214C237843F040032370A2F58632513A137843F0100313701C481C490822FFF7C4FF1B481C490A22FFF7BFFF1B481B490822E2
:400A8000FFF7BAFF1A481B490822FFF7B5FF8422194B1A70194A137843F008031370184D61232B70FFF73EFF81232B700122154B1A70FFF71DFF144821460E22FFF79CFF11
:400AC00038BD00BFE8460040E44400009400004803500140A043004002510040DC0C0048C0510040E40C0048F2510040F00C004812510040F80C00485B0C014022430040CA
:400B00000048004004000840B0430040024A137843F080031370704775640040014B1880704700BF08680040014B1880704700BF88680040014B1880704700BF48680040F0
:400B4000014B1870704700BF85640040014B1878704700BF65640040014B188880B27047A868004008B501E0FFF7F6FFFFF7EEFF10F0100FF8D108BD10B5154A137803F0C7
:400B8000C00343F0090313701F32137843F001031370104C237843F0010323704FF6FF70FFF7BCFF4FF6FF70FFF7BEFF7F20FFF7C1FF0020FFF7C4FF00F022FD237843F082
:400BC0001003237000F020FDFFF7CCFF10BD00BF756400409564004008B5054B1B7823B9FFF7CAFF0122024B1A70FFF78FFF08BDE481FF1F054A137843F0010313701032CC
:400C0000137843F001031370704700BFA2430040044A137803F0EF03000100F010001843107070470051004008B502200C4900F0E9F90220072100F0F9F90023094A1370C7
:400C40007221094A11702421073A117006215B3A11704721103211705032137008BD00BFDD0D0000E681FF1F8B65004010B500F0C7FC04460B4A137843F020031370073ABA
:400C8000137843F0100313700422074B1A60074A137843F01003137000F086F9204600F0B3FC10BD9B65004000E100E09965004008B5054B5B7823B9FFF7B6FF0122024BF2
:400CC0005A70FFF7D3FF08BDE681FF1F074B187800F07F00064BDB7913F0FF0F04D040F080000022024BDA71704700BF64650040E681FF1F0422164B1A60164B5A8892B247
:400D00009B889BB29A4207D1124B9B7913F0FF0F19D04FF4806017E00E4B5A8892B29B889BB29A4205D20B4A93885088181A80B20AE0084A908883B2508880B2181A00F502
:400D4000806080B200E000200422034B1A60704780E100E0E681FF1F00E100E008B500F04FFC0B4B1A7842F001021A701A7802F0FE021A7000F048FC0421064B1960064B14
:400D800000225A809A809A71DA71044B196008BD9865004080E100E0E681FF1F00E100E0034B1B7813F0040FFAD1024B18707047696500404964004038B5074B5B782BB937
:400DC00038BDFFF7EDFF0134A4B201E005460024285D0028F5D138BDE681FF1F1E4B1B78DBB213F01E0F05D01C4803F01E0201780A43027003F0200303F0FF02002B27D0EB
:400E0000174B1978C9B2174B1B889BB21648C154164B1B7813F0FF0F02D00121144B197010490B8801339BB20B800B889BB2B3F5806F02D300210B4B19800A4B198889B219
:400E40000C4B1B889BB2994202D10121074B1970002AC3D1704700BF64650040E681FF1F48650040EA81FF1FBC86FF1FEC81FF1FED81FF1FE881FF1F044A137803F0DF039C
:400E8000400100F0200018431070704700510040024A137843F080031370704776640040014B1880704700BF0C680040014B1880704700BF8C680040014B1880704700BFE7
:400EC0004C680040014B1870704700BF87640040014B1878704700BF67640040014B188880B27047AC68004008B501E0FFF7F6FFFFF7EEFF10F0100FF8D108BD10B5154AC6
:400F0000137803F0C00343F0090313702032137843F001031370104C237843F0010323704FF6FF70FFF7BCFF4FF6FF70FFF7BEFF7F20FFF7C1FF0020FFF7C4FF00F060FB11
:400F4000237843F01003237000F05EFBFFF7CCFF10BD00BF766400409764004008B5054B1B7823B9FFF7CAFF0122024B1A70FFF78FFF08BDF081FF1F044A137803F0FD0339
:400F8000400000F0020018431070704700510040044A137803F0FB03800000F0040018431070704700510040054A137843F0040313701032137843F004031370704700BFE4
:400FC000A243004001BE7047024A137843F0010313707047F646004010B5044605E0084B186800F005FBA4F50044B4F5004FF6D8034B586800FB04F000F0FAFA10BD00BFCB
:401000001081FF1F70B504460E46074B1D681F2802D90020FFF7D6FF04F01F04103455F8240045F8246070BD08ED00E038B504460D46072902D90020FFF7C4FF1F2C02D937
:401040000020FFF7BFFF04F01F0000F1604000F564406D01EDB2057038BD00BF044A137803F0F703C00000F008001843107070470051004008B50122054B1A600020054970
:40108000FFF7C0FF00200721FFF7D0FF08BD00BF80E100E07111000010B50124064B1C6000F04CF9A0F5004000B2044B1B68044A1460184410BD00BF80E100E0F481FF1F64
:4010C00000E100E038B505460124054B1C604FF4004000F02DF9034B1D60034B1C6038BD80E100E0F481FF1F00E100E0024B187800F00F00704700BF6E64004040F00700B3
:40110000014B1870704700BF8E64004008B50F20FFF7F4FFFFF7EAFF00F072FA054A137843F01003137000F06FFA0122024B1A6008BD00BF9E64004000E100E008B500F009
:401140004FF94FF4004000F0F3F80022064B1A60064B1B7823B9FFF78DFF0122034B1A70FFF7D4FF08BD00BFF481FF1FF181FF1F0D4B1B78DBB213F0010F06D00B490A6808
:4011800002F5FF427F320A6007E013F0020F04D006490A68A2F500420A6013F0040F02D00022024B1A6070476E640040F481FF1F054A137843F0020313701032137843F047
:4011C00002031370704700BFA243004008B50222054B1A6001200549FFF714FF01200721FFF724FF08BD00BF80E100E0C912000010B50224064B1C6000F01AF9A0F5004017
:4012000000B2044B1B68044A1460184410BD00BF80E100E0FC81FF1F00E100E038B505460224054B1C604FF4004000F0FBF8034B1D60034B1C6038BD80E100E0FC81FF1FED
:4012400000E100E0024B187800F00F00704700BF6964004040F00700014B1870704700BF8964004008B50F20FFF7F4FFFFF7EAFF00F0C6F9054A137843F01003137000F0AA
:40128000C3F90222024B1A6008BD00BF9964004000E100E008B500F01DF94FF4004000F0C1F80022064B1A60064B1B7823B9FFF78DFF0122034B1A70FFF7D4FF08BD00BF9F
:4012C000FC81FF1FF881FF1F0D4B1B78DBB213F0010F06D00B490A6802F5FF427F320A6007E013F0020F04D006490A68A2F500420A6013F0040F02D00022024B1A607047E7
:4013000069640040FC81FF1F024A137843F080031370704773640040014B1870704700BF8F640040014B1878704700BF6F640040014B1880704700BF1C680040024B1B7847
:40134000024B188880B270470E6400409C680040014B188880B270479C680040014B1880704700BF5C680040014B1880704700BF7C68004008B501E0FFF7EAFFFFF7D2FF68
:4013800010F0400FF8D108BD08B5134B1A7802F0F8021A701A7802F0FC021A70FFF7EAFF4FF40040FFF7DAFF4FF40040FFF7C0FF0020FFF7B1FFFFF7B5FF4FF40040FFF7CF
:4013C000D3FF00F01DF9054A137843F01003137000F01AF908BD00BF736400409F64004008B5054B1B7823B9FFF7CEFF0122024B1A70FFF789FF08BD0082FF1F024A13789E
:4014000043F080031370704778640040014B1870704700BF8C640040014B1878704700BF6C640040014B1880704700BF14680040024B1B78024B188880B270470A6400404A
:4014400094680040014B188880B2704794680040014B1880704700BF54680040014B1880704700BF7468004008B501E0FFF7EAFFFFF7D2FF10F0400FF8D108BD08B5134B17
:401480001A7802F0F8021A701A7802F0FC021A70FFF7EAFF4FF40040FFF7DAFF4FF40040FFF7C0FF0020FFF7B1FFFFF7B5FF4FF40040FFF7D3FF00F0A3F8054A137843F05C
:4014C0001003137000F0A0F808BD00BF786400409C64004008B5054B1B7823B9FFF7CEFF0122024B1A70FFF789FF08BD0182FF1F014B1B68D864704708ED00E04001C0B287
:40150000014B1870704700BF03E400E00822014B1A60704700E100E00822014B1A60704780E100E010B50446FFF7F6FF2046FFF7DFFF0720FFF7E2FFFFF7E8FF10BD00BFAF
:40154000024A137843F080031370704776650040014B1870704700BF87650040014B1878704700BF67650040014B1860704700BF24650040014B1868704700BF4465004087
:40158000014B1860704700BF0465004008B501E0FFF7F0FFFFF7E2FF10F0080FF8D108BD08B542F6DF60FFF7DFFF42F6DF60FFF7E7FF00F025F8064A137843F0100313703D
:4015C00000F022F8FFF7E2FF0120FFF7C1FF08BD9765004008B5054B1B7823B9FFF7E0FF0122024B1A70FFF7ABFF08BD0282FF1F0230800803D000BF01380046FCD1704791
:40160000EFF3108072B6704780F31088704700BF81F0004102E000BF83F0004330B54FEA41044FEA430594EA050F08BF90EA020F1FBF54EA000C55EA020C7FEA645C7FEA00
:40164000655C00F0E2804FEA5454D4EB5555B8BF6D420CDD2C4480EA020281EA030382EA000083EA010180EA020281EA0303362D88BF30BD11F0004F4FEA01314FF4801CC4
:401680004CEA113102D0404261EB410113F0004F4FEA03334CEA133302D0524263EB430394EA050F00F0A780A4F10104D5F1200E0DDB02FA0EFC22FA05F2801841F1000196
:4016C00003FA0EF2801843FA05F359410EE0A5F120050EF1200E012A03FA0EFC28BF4CF0020C43FA05F3C01851EBE37101F0004507D54FF0000EDCF1000C7EEB00006EEBB6
:401700000101B1F5801F1BD3B1F5001F0CD349085FEA30004FEA3C0C04F101044FEA445212F5800F80F09A80BCF1004F08BF5FEA500C50F1000041EB045141EA050130BD54
:401740005FEA4C0C404141EB010111F4801FA4F10104E9D191F0000F04BF01460020B1FA81F308BF2033A3F10B03B3F120020CDA0C3208DD02F1140CC2F10C0201FA0CF0F2
:4017800021FA02F10CE002F11402D8BFC2F1200C01FA02F120FA0CFCDCBF41EA0C019040E41AA2BF01EB0451294330BD6FEA04041F3C1CDA0C340EDC04F11404C4F1200244
:4017C00020FA04F001FA02F340EA030021FA04F345EA030130BDC4F10C04C4F1200220FA02F001FA04F340EA0300294630BD21FA04F0294630BD94F0000F83F4801306BF9C
:4018000081F480110134013D4EE77FEA645C18BF7FEA655C29D094EA050F08BF90EA020F05D054EA000C04BF1946104630BD91EA030F1EBF0021002030BD5FEA545C05D108
:401840004000494128BF41F0004130BD14F580043CBF01F5801130BD01F0004545F0FE4141F470014FF0000030BD7FEA645C1ABF194610467FEA655C1CBF0B46024650EA51
:40188000013406BF52EA033591EA030F41F4002130BD00BF90F0000F04BF0021704730B54FF4806404F132044FF000054FF0000150E700BF90F0000F04BF0021704730B541
:4018C0004FF4806404F1320410F0004548BF40424FF000013EE700BF42004FEAE2014FEA31014FEA02701FBF12F07F4393F07F4F81F06051704792F0000F14BF93F07F4FAF
:40190000704730B54FF4607401F0004521F0004120E700BF50EA010208BF704730B54FF000050AE050EA010208BF704730B511F0004502D5404261EB41014FF4806404F1EF
:4019400032045FEA915C3FF4DCAE4FF003025FEADC0C18BF03325FEADC0C18BF033202EBDC02C2F1200300FA03FC20FA02F001FA03FE40EA0E0021FA02F11444C1E600BFDA
:4019800070B54FF0FF0C4CF4E06C1CEA11541DBF1CEA135594EA0C0F95EA0C0F00F0DEF82C4481EA030621EA4C5123EA4C5350EA013518BF52EA033541F4801143F48013FB
:4019C00038D0A0FB02CE4FF00005E1FB02E506F00042E0FB03E54FF00006E1FB03569CF0000F18BF4EF0010EA4F1FF04B6F5007F64F5407404D25FEA4E0E6D4146EB060604
:401A000042EAC62141EA55514FEAC52040EA5E504FEACE2EB4F1FD0C88BFBCF5E06F1ED8BEF1004F08BF5FEA500E50F1000041EB045170BD06F0004646EA010140EA0200B7
:401A400081EA0301B4EB5C04C2BFD4EB0C0541EA045170BD41F480114FF0000E013C00F3AB8014F1360FDEBF002001F0004170BDC4F10004203C35DA0C341BDC04F11404BE
:401A8000C4F1200500FA05F320FA04F001FA05F240EA020001F0004221F0004110EBD37021FA04F642EB06015EEA430E08BF20EAD37070BDC4F10C04C4F1200500FA04F3B8
:401AC00020FA05F001FA04F240EA020001F0004110EBD37041F100015EEA430E08BF20EAD37070BDC4F1200500FA05F24EEA020E20FA04F301FA05F243EA020321FA04F0E6
:401B000001F0004121FA04F220EA020000EBD3705EEA430E08BF20EAD37070BD94F0000F0FD101F00046400041EB010111F4801F08BF013CF7D041EA060195F0000F18BF2A
:401B4000704703F00046520043EB030313F4801F08BF013DF7D043EA0603704794EA0C0F0CEA135518BF95EA0C0F0CD050EA410618BF52EA4306D1D181EA030101F000412C
:401B80004FF0000070BD50EA410606BF1046194652EA430619D094EA0C0F02D150EA013613D195EA0C0F05D152EA03361CBF104619460AD181EA030101F0004141F0FE412E
:401BC00041F470014FF0000070BD41F0FE4141F4780170BD70B54FF0FF0C4CF4E06C1CEA11541DBF1CEA135594EA0C0F95EA0C0F00F0A7F8A4EB050481EA030E52EA03358E
:401C00004FEA013100F088804FEA03334FF0805545EA131343EA12634FEA022245EA111545EA10654FEA00260EF000419D4208BF964244F1FD0404F5407402D25B084FEA02
:401C40003202B61A65EB03055B084FEA32024FF480104FF4002CB6EB020E75EB030E22BFB61A754640EA0C005B084FEA3202B6EB020E75EB030E22BFB61A754640EA5C004E
:401C80005B084FEA3202B6EB020E75EB030E22BFB61A754640EA9C005B084FEA3202B6EB020E75EB030E22BFB61A754640EADC0055EA060E18D04FEA051545EA16754FEA1B
:401CC00006164FEAC30343EA52734FEAC2025FEA1C1CC0D111F4801F0BD141EA00014FF000004FF0004CB6E711F4801F04BF01430020B4F1FD0C88BFBCF5E06F3FF6AFAE63
:401D0000B5EB030C04BFB6EB020C5FEA500C50F1000041EB045170BD0EF0004E4EEA113114EB5C04C2BFD4EB0C0541EA045170BD41F480114FF0000E013C90E645EA060EC2
:401D40008DE60CEA135594EA0C0F08BF95EA0C0F3FF43BAF94EA0C0F0AD150EA01347FF434AF95EA0C0F7FF425AF104619462CE795EA0C0F06D152EA03353FF4FDAE104680
:401D8000194622E750EA410618BF52EA43067FF4C5AE50EA41047FF40DAF52EA43057FF4EBAE12E74FEA410212F5001215D211D56FF47873B3EB625212D94FEAC12343F084
:401DC000004343EA505311F0004F23FA02F018BF404270474FF00000704750EA013005D111F0004008BF6FF0004070474FF00000704700BF002100F0CFBE00210A2200F03C
:401E00005BBF0000014B1868704700BF8081FF1F0E4B70B51E460E4C0025E41AA410A54204D056F8253098470135F8E702F0BCFC084B094C1E46E41AA4100025A54204D07A
:401E400056F8253098470135F8E770BDB4470000B4470000B4470000BC47000010B5431E0A44914204D011F8014B03F8014FF8E710BD03460244934202D003F8011BFAE715
:401E8000704700000EB400B54FF402719CB0ADF814106FF00041049107914FF6FF711DABADF81610084953F8042B02900690086802A9019301F0D2FE029B00221A701CB09C
:401EC0005DF804EB03B070478081FF1F034610B532B111F8014B013A03F8014B002CF7D11A44934203D0002103F8011BF9E710BD30B5036811F8014B01334CB11A78A2F173
:401F00004105192D98BF2032A242F3D0002030BD0360012030BD2DE9F0410F46904601F0B5FC04460D46B8F1000F11D0C7F30A53C3F16B03002B0BDD1B0503F17F550024A5
:401F400005F5401522462B46FFF71AFDBDE8F08120462946BDE8F0812DE9F04F00239FB01A9382460B46039115924FF000084FF000091993199B1A780D2A05D8092A13D2B6
:401F8000002A00F0B78111E02B2A06D02D2A02D0202A0BD108E0012200E0002209925A1C19925B7823B9A5E10133E2E700230993199C2378302B5CD16378582B01D0782B00
:401FC0004CD11AAB0093099B5046019319A9AE4A1BAB00F0CAFE10F00706054600F0A585062E05D1013400231994099300F09DBD1A9A3AB11CA8352101F035FD50461A99DA
:4020000001F0ADF91B9A062E21D8DFE806F0040D08171C0D04004FF00009C84617E0DDF87080DDF8749012E01D9B02F2334223F48013DDF8708043EA025908E0DFF84C927B
:402040004FF0000803E06FF000494FF0FF38290740F16B8549F0004900F067BD199B5A1C19925B78302BF9D0002B00F05E85012300E000230026B34635460493199B0793C1
:40208000199C2778A7F13003DAB2092A0CD8082D4FF00A0204F10104D4BF02FB0B3B02FB063601351994EBE7504601F01FF901685046059101F01AF9006802F067F8059991
:4020C0000246204602F06AF828B100203B462C460246074657E00590504601F007F9006802F054F8199B05991A1819921B5C002D41D12846302B05D1199B01305A1C1992DA
:402100005B78F7E7A3F13102082A42D8199A0792024600200446303B00F1010125D00A4421460719B94211D0013101F1FF3EBEF1080F04DC4FF00A0E0EFB0BFBF2E710295A
:40214000DCBF4FF00A0E0EFB06F6EBE72044082800F1010403DC0A2101FB0B3B04E0102CDCBF0A2101FB06360021199B581C19905B78084602E02C4608460A46A3F13001D8
:402180000929C8D90127652B01D0452B64D16CB904E0652B40F0D7840022012728B9049B002B00F0A780044600E00024199B039301331993039B5B782B2B07D02D2B02D0AE
:4021C0004FF0000C09E04FF0010C01E04FF0000C039B02331993039B9B78A3F13001092938D81946302904D1199B591C19915978F8E7A1F1310EBEF1080F0B462CD8A1F16E
:4022000030030593199B0693199B03F1010ECDF864E05B78A3F13001092908D805994FF00A0E0EFB0131A1F130030593ECE70699C1EB0E0EBEF1080F44F61F6E04DC05994A
:402240007145A8BF714600E07146BCF1000F04D0494202E0039919910021002C54D1002840F06384049A002A40F05F84002F41D14E2B20D002DC492B0AD03BE0692B07D0C8
:402280006E2B18D036E000BF584500000000F07F19A8AA49FFF72CFE60B3199B19A8013BA7491993FFF724FE10B9199B01331993DFF8A4921AE019A8A249FFF719FEC8B1DA
:4022C000199B1B78282B0FD119A89F491CAA00F083FF052808D11D9BDDF8708043F0FF4949F4E00900F021BCDFF870924FF0000800F01BBC039B1993159B002B00F02084F2
:402300000023099300F013BC8B1A06932B46002D08BF23465846102C25460393A8BF1025FFF7B8FA092D8046894613DD874B03EBC50353E91223FFF723FB80463046894621
:40234000FFF7A8FA02460B4640464946FFF766F9804689460F2C36DC069B002B00F0E58324DD162B07DC794A02EBC302D2E900014B46424615E0069AC4F125039A4222DC01
:40238000724DC4F10F0405EBC403D3E9000142464B46FFF7F5FA069B1C1B05EBC405D5E90023FFF7EDFA80468946BEE3069B13F1160F08DB654A4046A2EBC30249460CCA06
:4023C000FFF708FCEFE7069B651B1D44002D58DD15F00F020AD05D4B03EBC203D3E9000142464B46FFF7CCFA8046894635F00F0500F0BA80B5F59A7F0FDD4FF0000BCDF896
:402400000CB0CDF81CB0CDF814B02223CAF80030DFF844914FF0000883E14946DFF8409140464E462D110027012D0ADDEA0703D5D9E90023FFF7A4FA01376D1009F108096B
:40244000F2E78046A1F1547906EBC7064246D6E900014B46FFF794FA21F0004389460A461B0D3B491B058B428046C6D8A1F580118B4286BFDFF8EC904FF0FF3802F1547911
:4024800072E071D06D4215F00F020AD02F4B404603EBC2034946D3E90023FFF79BFB804689462D1160D01F2D08DD4FF0000BCDF80CB0CDF81CB0CDF814B02BE14046494603
:4024C00015F0100F0CBF00236A23224E0493002D08DDEB0703D5D6E90023FFF751FA6D100836F4E7049B80468946EBB1C1F30A53C3F16B03002B0A4616DD1F2B0EDD342B9C
:40250000DEBF203B4FF0FF3101FA03F34FF00008CCBF4FF05C7903EA020905E04FF0FF3202FA03F303EA0008404649460022002301F04AFF0028B8D118E000BF20450000C8
:4025400023450000294500000C450000784600000000A07C304500000000F07F0000F8FF40470000FFFFEF7F00230493CDF800B050460799039A234600F046FF079000282D
:402580003FF43BAF069A069B002AC3F100034FF0000BA8BF00230E93CDF80CB0079B5046596800F0A7FE059000283FF42EAF079B0C301A69079B023203F10C019200FFF7CB
:4025C0004DFC1BAB00931CAB0193504642464B46CDE90A8901F0CDF91A9000283FF415AF5046012100F09DFF039000283FF40DAF069B049923EAE3771B9B1C9C002BAABFD1
:402600000E9AFA1AD618A3EB010323446FF47F71ACBF3A460E9E8B42C4F1360480F28680C91A1F29A4EB0104C8BFB3494FF00100D5BF00FA01F3C91A149300FA01F3D9BFC5
:4026400000230F930F9314903519049BB54214441C442B46A8BF3346A342A8BF2346002BC2BFED1AE41AF61A0E9B002B63D1002D7BDC002F40F08380002C00F38A80002EA7
:4026800000F3918050461A99059A01F0A0F8834600283FF4BAAEC3680024C4600399089301F079F8A04280F28D80089B002B40F01582B8F1000F40F01182C9F31303002B9F
:4026C00040F00C8229F000431B0D1B05B3F1D66F40F20482DBF81430002B6ED059460122504601F005F80399834601F054F8002840F3F48129F00043049A1B0D1B05002A33
:4027000000F08F80B3F1D66F00F38B80B3F15C7F00F3E68122234FF000084FF00009CAF80030079B002B40F0EC81FEE100230F930123149388E71A465046039900F08AFFC1
:402740000390034600283FF460AE504619461A9A00F0F0FE089000283FF457AE50461A9900F0FDFD089B1A9381E750461A992A4600F0BEFF1A9000287FF47BAF45E6504614
:4027800005993A4600F066FF059000287FF474AF3BE650460599224600F0AAFF059000287FF46DAF31E650460399324600F0A0FF039000287FF466AF27E6DBF81030012BD2
:4027C0008CDC8BE162D1089AC9F3130322B34B494A468B422ED1049B414663B1484B1340B3F1D46F07D81B0DC3F16B034FF0FF3000FA03F301E04FF0FF3399421AD1414B67
:402800009A4202D101313FF400AE3D4B4FF00008134003F5801961E163B9B8F1000F09D168E7A3F580136FEA13594FF0FF386FEA095953E10F9B13B113EA090F02E0149B7B
:4028400013EA080F00F04A81089B40464946049A53B1FFF760FB02460B46DDE90A01FEF7DDFE8046894639E1FFF755FB02460B46DDE90A01FEF7D0FE0022002380468946A8
:4028800001F0A2FD00287FF445AF27E15846039901F0C1F800224FF0804306460F4601F0A7FD00283FD0089B13B10026164F10E0B8F1000F03D1C9F313033BB90BE0B8F1B4
:4028C000010F03D1B9F1000F3FF424AF0F4F002600240D4D3CE03046394600220A4B01F07DFDB8B9304639460022094BFFF748F804460D4610E000BFE3FBFFFFFFFF0F00F9
:402900000000F07FFFFFEF7F0000F03F0000F0BF0000E03F089C9A4D05F1004316941793DDE9166714E0964B304639460022FFF727F8089B04460D4623B901F10043109072
:40294000119303E002460B46CDE91023DDE9106729F0004C4FEA1C5C8A4B4FEA0C5C9C4531D1DDE90A23A9F1547940464946CDF83CC0CDE90C2300F089FF02460B46304606
:402980003946FEF7FDFF02460B4640464946FEF745FE21F000431B0D7B4A1B0593428046DDF83CC00CD9794B0D9A9A4203D10C9B01333FF42AADDFF8D4914FF0FF387CE001
:4029C00001F1547944E0049B63B3BCF1D46F29D863A3D3E9002320462946CDF83CC001F007FDDDF83CC0C8B12946204601F01EFD002808BF0120FEF74DFF089B04460D4622
:402A0000DDF83CC023B901F100431290139303E002460B46CDE91223DDE9126707F1D663CCEB0307DDE90A01CDF83CC000F02EFF02460B4630463946FEF7A2FF02460B4668
:402A4000DDE90A01FEF7EAFD80468946DDF83CC0049B4E468BBB29F000431B0D1B059C452BD129462046FFF79DF9FEF723FF0B46024629462046FEF7CFFD089B04460D4662
:402A80002BB9B8F1000F02D1C9F313067EB136A3D3E900232046294601F0A0FC88BB34A3D3E900232046294601F0B6FC04E032A3D3E9002301F092FC18BB50461A9900F0F5
:402AC0004EFC5046059900F04AFC5046039900F046FC5046594600F042FC5FE5049B83B12B4B40460D9300230C934946DDE90C23FEF746FF8046894619B910B92223CAF8F1
:402B0000003050461A9900F02AFC5046059900F026FC5046039900F022FC5046079900F01EFC5046594600F01AFC159B13B1199B159A1360099B1BB1424609F1004307E09F
:402B400042464B4604E0002422460127FFF71DBB104619461FB0BDE8F08F00BFAFF300800000C0FFFFFFDF419535A094FFFFDF3F35E5AF350000E03F9535A094FFFFCF3F2F
:402B80000000E03F0000E07FFFFF9F7CFFFFEF7F00005039AFF3008003460A46024908681946FFF7D9B900BF8081FF1F2DE9F0470F46404CD4F800903D4615F801EB09EB54
:402BC0000E04667806F0080404F0FF060CB12F46F2E774462D2C03D1BD1C7C78012603E02B2C04BF7C78BD1C13B1102B0AD15AE0302C56D12C7804F0DF04582C4CD16C78A3
:402C000010230235002E14BF4FF000486FF00048B8FBF3FA0027BE4603FB1A8809EB040C9CF801C01CF0040F01D0303C0BE01CF0030C1BD0BCF1010F0CBF4FF0370C4FF0A1
:402C4000570CCCEB04049C4210DAB7F1FF3F0AD0D64506D801D1444503DC03FB0E4E012701E04FF0FF3715F8014BD7E77C1C73460AD1002E4FF0220114BF4FF000436FF018
:402C8000004301602AB911E00EB1CEF100036AB107B1691E116009E03024002BB2D10823B0E70A23AEE7302CACD1A3E71846BDE8F08700BF8481FF1F30B505460C46134647
:402CC000034A294610682246BDE83040FFF76EBF8081FF1FF0B506694B11B34200F1140527DA11F01F0105EB860605EB830201D1294616E0141D55F823202B46C1F1200E16
:402D0000CA40B44209D2276807FA0EF73A4343F8042B54F8042BCA40F3E71A6052B1043308E0B2420B4605D252F8043B41F8043BF7E72B465B1B9B10036103B94361F0BD43
:402D4000A0F13003092B01D820380AE0A0F16103052B01D8473804E0A0F14103052B02D82738C0B27047002070472DE9F04F89B08A4691460493019000F0B8FA0368002611
:402D80001846029301F002FA029B0090034413F8013C0593DAF800300233984613F8010B302801D10136F8E7FFF7CAFF0446E8B940460299009A01F0F1F9002837D1009B68
:402DC00018F8030008EB0307FFF7BAFF88B33B4618789846302803F10103F9D0FFF7B0FFB0FA80F53C466D09012601E000252C46C3465F4638780BF1010BFFF7A1FF002852
:402E0000F7D138460299009A01F0C8F958B95CB9009BFC18A3465F4638780BF1010BFFF78FFF0028F7D134B1E41BA40003E0474600E0044601253B78502B01D0702B30D1F3
:402E40007B782B2B06D02D2B02D07A1C002303E0012300E00023BA1C107806930392FFF76FFF411EC9B21829039A069B19D8A0F1100B12F8010F069303920792FFF760FF2A
:402E8000411EC9B21829039A069B05D80A2101FB0B0BABF1100BECE70BB1CBF1000B5C4400E03A46CAF8002025B1002E14BF002006207CE12946C8EB0703013B072B02DDBD
:402EC00001315B10FAE7019800F014FA4FF0000A00F1140B05465E46D446474537D97B1E0393059A17F8013C934209D0BCF1200F1AD1C6F800A04FF0000A0436D44613E042
:402F0000009B039AC3F1010313444345EED318460299009ACDF81CC0069301F03FF9069BDDF81CC088B1E1E717F8010CCDF818C0FFF706FFDDF818C000F00F0000FA0CF062
:402F4000039B4AEA000A0CF1040C1F46C5E746F804ABCBEB0606B01028614701504600F093FAD9F80060381AB04226DD871B3946284600F092FDC8B17B1E5A1103F01F01EE
:402F80004FF001085BF8222008FA01F111420ED0434502DC4FF0020809E02846B91E00F07CFD0028F6D04FF0030800E0804628463946FFF78FFE3C440CE009DA371A29466C
:402FC00001983A4600F094FB0546E41B00F1140B4FF00008D9F808309C4208DD0198294600F0BDF9129A00231360A320DFE0D9F80400844253DA041BB4422EDBD9F80C3067
:40300000022B1AD0032B1CD0012B1DD1B4421BD1012E0BDCD9F80430049A6220136001232B61CBF80030129B1D60C0E02846711E00F033FD0028EDD106E0139B002BE9D0CD
:4030400002E0139B002BE5D10198294600F087F9129A002313605020A9E0671EB8F1000F07D1002F07DD2846394600F016FD804601E04FF001087A115BF8222007F01F07E8
:403080000123BB4013422146284618BF48F00208361BFFF71FFE0227D9F8044000E00127B8F1000F7ED0D9F80C30022B0ED0032B10D0012B74D118F0020F71D0DBF800003A
:4030C00048EA000818F0010F07D169E0139BC3F101031393139B002B62D0D5F810A005F114034FEA8A0803EB08011A68501C02D001321A6021E0002243F8042B8B42F4D36C
:40310000AB689A4512DB69680198013100F0F2F883462A6905F10C01023292000C30FEF79DFE2946019800F01AF95D462B695A1C2A6105EB830301225A61022F05F1140275
:4031400010D1D9F80030013B9E4226D17111012306F01F0652F82120B34013420CBF022701271AE02B6953450ADD28460121FFF7B1FDD9F8083001349C423FF72FAF0BE04E
:4031800016F01F0608D0904458F8040C00F07CF9C6F12006B042E8DB012747F0200701E047F010073846129B1D60049B1C6009B0BDE8F08FC2F10802920070B5C2F120063F
:4031C0004368056803FA06F42C43D340046040F8043F8842F4D370BD2DE9F04F0E681746751102EB850516F01F0318BF04350022A5F104098346C8464C46164685B0D0F8BD
:4032000000A0019345F8042C00921AF8011F00293AD0084603920291FFF792FD0299039AE8B9202914D8009BB342EEDA444505D2072A03DC20464146FFF7BCFFBC4221D98F
:40324000A4F10408002244F8042C00964446DCE7292945D10AF10103CBF8003014E00132082A06F1010606DDBC42CED9002244F8042C043C0122216800F00F0040EA01104F
:403280002060C2E70822C0E756B3444505D2072A03DC20464146FFF78DFFBC420CD93B4654F8042B4C4543F8042BF9D9002243F8042B4B45FAD90BE0019B4BB1C3F1200634
:4032C00055F8042C4FF0FF33F340134045F8043C55F8043D33B9BD42FAD101232B6001E0042000E0052005B0BDE8F08F004870478881FF1F70B5456A04460E463DB9102049
:4033000000F066FF6062456085600560C560656AEB6843B1636ADB6853F8260078B1026843F8262017E020460421212200F0D7FB636AE860DB68002BECD1002070BD012181
:4033400001FA06F56A1D2046920000F0C8FB0028F3D04660856000230361C36070BD70B5446A06460D463CB9102000F031FF7062446084600460C4603DB1736A6A68DB685F
:4033800053F82210296043F8225070BD2DE9F04106460C460F69984601F1140E0023DEF80000013385B2010C02FB0585514301EB1541ADB24FEA1148BB4205EB01414EF8AA
:4033C000041BECDBB8F1000F1BD0A3689F4212DB616830460131FFF78DFF0546226904F10C01023292000C30FEF738FD21463046FFF7B5FF2C4604EB87030137C3F814807B
:4034000027612046BDE8F0812DE9F843074615469846092208330C4693FBF2F2002101239A4202DD5B000131FAE73846FFF762FF089B092D43614FF001030146036110DDEC
:4034400004F10906B1462C4419F8013B38460A22303BFFF79BFFA1450146F5D17419083C01E00A34092526462B1B3344434508DA16F8013B38460A22303BFFF787FF014629
:40348000F2E70846BDE8F883030C1B0413B90004102300E0002310F07F4F04BF0002083310F0704F04BF0001043310F0404F04BF80000233002803DB420003D5581C7047B7
:4034C0001846704720207047036813F007020BD0D90722D49A074BBF5B089B08036003604CBF01200220704799B209B91B0C102213F0FF0F04BF1B0A0832190704BF1B097C
:403500000432990704BF9B080232D90702D45B0805D00132036010467047002070472020704710B50C460121FFF7E4FE01224461026110BD2DE9F74F14460A692369884630
:403540009A42BEBF0B46A0461C46D8F81070D4F81090D8F80830D8F8041007EB09069E42C8BF0131FFF7C6FE00F114052B4605EB860C634503D2002243F8042BF9E704F182
:40358000140208F1140102EB890301EB87070093009B01929A4257D2B2F800B0BBF1000F23D08946AE464FF0000859F8044BBEF800A0A3B20BFB03A34FEA144ADEF8004078
:4035C00043444FEA14480BFB0A84F24604EB13449BB243EA04434F454FEA14484AF8043B01D9D646E1E7CEF80480019B0432B3F802A0BAF1000F21D02C4689462B684FF04D
:403600000008B9F800E0B4F802B09BB20AFB0EBEA346F04443EA08434BF8043B59F8043BB4F804E01B0C0AFB03E3B94503EB18434FEA134801D25C46E3E763600435A7E788
:403640005CF8043D13B9013E002EF9DC066103B0BDE8F08F12F003032DE9F04106460F46154607D0214A013B52F823200023FFF78DFE0746AD1035D0746A3CB9102000F06D
:40368000A7FD7062446084600460C460D6F82480D8F808407CB9304640F27121FFF741FF0023C8F808000446036004E06D1019D0206870B10446EB07F8D539462246304664
:4036C000FFF738FF804639463046FFF748FE4746ECE7304621462246FFF72CFF002320600360E7E73846BDE8F08100BF684700002DE9F0470C460746164623694FEA621A81
:403700000AEB03094968A36809F101059D4202DD01315B00FAE73846FFF7ECFD804600F114010023534504DA002241F823200133F8E72AEAEA73206901EB830316F01F029A
:4037400004F1140101EB800E14D0C2F1200C00200E689A469640304343F8040B51F8040B714520FA0CF0F3D3CAF8040048B109F1020506E0043B51F8042B714543F8042F8E
:40378000F9D3013D3846C8F810502146FFF7E7FD4046BDE8F08703690A6910B59B1A11D192001430143183180A4453F8044D52F8041D8C4202D007D3012010BD8342F4D83F
:4037C000002010BD184610BD4FF0FF3010BD2DE9F84307460C46084611461546FFF7DBFF061E08D138463146FFF784FD012303614661BDE8F883BCBF23462C463846616861
:40380000BABF1D4601260026FFF774FD2B69C660266905F1140904F1140101EB860709EB830800F114054FF0000C51F8042B59F8044B93B29C44A3B2240CC3EB0C03C4EB17
:40384000124202EB23429BB24FEA224CC84543EA02428E4645F8042BE7D8BE450ED25EF8043B9AB262441B0C03EB224392B242EA03424FEA234C45F8042BEEE755F8043D21
:403880000BB9013EFAE70661BDE8F883104B0B40A3F15073002B02DD0020194670475B421B15132B4FF000004FF0000104DC4FF4002242FA03F17047322B4FF00102CEBF7E
:4038C0001346C3F1330302FA03F31846704700BF0000F07F2DE9F041056900F1140707EB850555F8044C88462046FFF7CDFDC0F120030A28A5F10406C8F8003011DCC0F14E
:403900000B0E24FA0EF1BE4241F07F538CBF55F8081C0021153043F4401321FA0EF184401BE0BE4286BFA5F1080655F8081C0021B0F10B0514D0AC40C0F12B0044F07F54EA
:4039400044F4401421FA00FEBE4244EA0E038CBF56F8044C0024C440A94044EA010204E00A4644F07F5343F4401310461946BDE8F0812DE9F3411C4601211546089F099E32
:40398000FFF7B8FCC4F31302C4F30A5480460CB142F480120192EDB102A840F8085DFFF793FD009B50B1019AC0F1200102FA01F10B43C240C8F81430019201E0C8F8143070
:4039C000019B002B14BF02250125C8F81830C8F8105009E001A8FFF777FD019B0125C8F81430C8F81050203034B1A4F2334404443C60C0F1350009E0A0F2324008EB850362
:403A000038601869FFF740FDC0EB45103060404602B0BDE8F0812DE9F743884669468146FFF758FF0F46064601A94046FFF752FF0D460446019A009BD8F810109B1AD9F81A
:403A400010203046521A03EB4213002BCCBF07EB0357A5EB0355394622462B46FEF7BAF803B0BDE8F083013910B549111469013102F1140300EB810103EB8404A34202461B
:403A800004D253F8042B40F8042BF7E78A4203D2002342F8043BF9E710BD00F1140200694B11834210B50CDC0CDA11F01F0109D052F8234024FA01F000FA01F1A1420CD101
:403AC00000E0034602EB8303934204D953F8041D0029F9D001E0002010BD012010BD38B502FB01F4214600F009F8054618B100212246FEF7BEF9284638BD000070B5CC1C6E
:403B000024F0030408340C2C38BF0C24002C064603DA0C233360002070BD8C42F9D3204A136810461946A1B10A68121B0ED40B2A03D90A608B188C501FE08B420BBF5A6812
:403B40004A6802605A6018BF0B4616E00B464968E9E7144D2B681BB9304600F007FB28603046214600F002FB421C0346D1D0C51C25F0030585420AD11C6003F10B001A1D6B
:403B800020F00700821A0AD05142995070BD3046E91A00F0EBFA0130BBD02B46ECE770BD0882FF1F0482FF1F2DE9F0478E688246B3420C469046994640D38A8912F4906FD6
:403BC0003AD02568096902236F1A656905EB450595FBF3F57B1C4B449D4238BF1D4653050FD52946FFF78AFF064698B121693A46FEF734F9A38923F4906343F08003A38134
:403C000013E02A4600F05AFB064670B95046216900F010FB0C23CAF80030A3894FF0FF3043F04003A381BDE8F08726613E4426604E466561ED1BA560B14500D24E46324611
:403C40002068414600F0DAFAA36800209B1BA36023681E442660BDE8F08700002DE9F0439DB003938B8906461C060D4690460CD50B6953B94021FFF741FF2860286110B955
:403C80000C233360CCE040236B610023099320238DF8293030238DF82A3043461C4613F8012B1AB9B4EB08090FD002E0252AF5D1F8E73046294642464B46FFF775FF013062
:403CC00000F0A980099B4B4409932378002B00F0A28000234FF0FF3204930793059206938DF853301A9304F101084446DFF8489121784846052200F073FA08F10108049BD7
:403D000030B1C9EB00000122824013430493ECE7D80644BF20228DF85320190744BF2B228DF8532022782A2A02D0079923460EE0039A0134111D12680391002ABBBF5242C9
:403D400043F0020307920792B8BF04930AE01C4622780133303A092A03D80A2000FB0121F5E7079123782E2B1AD163782A2B0AD1039B02341A1D1B680392002BB8BF4FF090
:403D8000FF3305930CE0611C00220C4623780131303B092B03D80A2000FB0232F5E70592DFF8988021784046032200F019FA38B1049AC8EB00004023834013430493013491
:403DC00021781A48062204F101088DF8281000F007FA88B1164B33B9039B073323F007030833039313E003AB0093304604A92A46104BAFF3008007E003AB0093304604A919
:403E00002A460C4B00F092F8421C074603D0099B3B44099341E7AB895B0601D4099801E04FF0FF301DB0BDE8F08300BF7E47000000000000A93B0000744700007A470000B9
:403E40002DE9F84391461F468A680B6906469342B8BF1346C9F8003091F843200C46DDF8208012B10133C9F800302368990642BFD9F800300233C9F80030256815F00605E3
:403E80001CD094F843302268003318BF012392061FD5E118302081F843005A1C94F845102244023382F8431013E03046394604F119020123C047013007D00135E368D9F892
:403EC00000209B1A9D42F0DBDBE74FF0FF30BDE8F8833046394604F14302C0470130F4D02268D9F80050E36802F00602042A08BF5D1B2269A3680CBF25EAE57500259342A7
:403F0000C4BF9B1AED184FF00009A9450ADA3046394604F11A020123C0470130D5D009F10109F2E70020BDE8F88300002DE9FF410C461746227E98466E2A06460A9B01F108
:403F4000430100F0B08012D8632A23D00AD8002A00F0BD80582A40F0CC8084F84520DFF804E257E0642A1ED0692A1CD0C1E0732A00F0B18009D86F2A2ED0702A40F0B98092
:403F8000226842F0200222603FE0752A24D0782A3BD0AEE01A6804F14205111D1960136884F84230A9E020681A6810F0800F02D0101D186008E010F0400F02F104001860A7
:403FC00002D0B2F9003000E01368002B3EDA2D225B4284F8432039E020681A6810F0800F02D0101D186007E010F0400F02F10400186001D0138800E01368227EDFF864E15A
:404000006F2A0CBF08220A221CE07822DFF858E184F845202268186812F0800F00F104051D6003D1550601D5038800E00368D00744BF42F0200222601BB9226822F0200210
:4040400022601022002084F8430002E0DFF814E10A226568002DA8BF2068A560A4BF20F00400206003B965B10D46B3FBF2F002FB10331EF8033005F8013D03460028F4D13F
:4040800000E00D46082A0BD12368DA0708D5236962689A42DEBF302305F8013C05F1FF35491B21612EE025681A6815F0800F606903D0151D1D60136808E015F0400F02F164
:4040C00004051D60136801D0188000E01860002323610D4616E01A68111D1960156800212846626800F07CF808B1401B6060636804E004F1420584F8422001232361002343
:4041000084F84330CDF800803046214603AA3B46FFF796FE013002D14FF0FF301FE0304639462A462369C0470130F5D023689B0705D4E068039B9842B8BF18460FE00025A8
:40414000E368039A9B1A9D42F3DA3046394604F119020123C0470130DED00135F0E704B0BDE8F081854700009647000038B5064C0023054608462360FCF726FB431C02D1A3
:40418000236803B12B6038BDBC8AFF1F034613F8012B002AFBD1181A0138704770B5A2B1451E01396B7811F8014F6E1CA34206D16FF00104641B1444E04202D11C46181BE8
:4041C00070BD3546002BEDD1F8E7104670BD0000024B01461868FFF791BC00BF8081FF1F10B5C9B202449042034605D01C7801308C42F8D1184610BD002010BD814210B525
:4042000001EB020301D3421E0BE09842FBD28118D21AD34204D013F8014D01F8014DF8E710BD994204D011F8014B02F8014FF8E710BD000030B500293CD051F8042C0B1F56
:404240001D49002AB8BF9B180A680C4612B95A600B6030BD93420DD219685818904201BF5A5852181A60426823605A6030BD994203D80A4651680029F9D1146815199D4207
:404280000AD11B682344D0188842136012D10868034413604B680CE002D90C23036030BD1C681819884201BF08684968001918605960536030BD00BF0882FF1FF8B5074663
:4042C00015460E4621B91146BDE8F840FFF716BC1AB9FFF7AFFF2846F8BD00F015F8A8420ED238462946FFF709FC044650B131462A46FDF7B3FD38463146FFF79BFF01E0B4
:404300003046F8BD2046F8BD51F8040C0028BEBF091851F8043CC018043870474FF0FF3C06E000BF4FF0010C02E000BF4FF0010C4DF804CD4FEA410C7FEA6C5C4FEA430C17
:4043400018BF7FEA6C5C1BD001B050EA410C0CBF52EA430C91EA030F02BF90EA020F0020704710F1000F91EA030F58BF994208BF90422CBFD8176FEAE37040F00100704776
:404380004FEA410C7FEA6C5C02D150EA013C07D14FEA430C7FEA6C5CD6D152EA033CD3D05DF8040B704700BF8446104662468C461946634600E000BF01B5FFF7B7FF002801
:4043C00048BF10F1000F01BD4DF808EDFFF7F4FF0CBF012000205DF808FB00BF4DF808EDFFF7EAFF34BF012000205DF808FB00BF4DF808EDFFF7E0FF94BF012000205DF846
:4044000008FB00BF4DF808EDFFF7CEFF94BF012000205DF808FB00BF4DF808EDFFF7C4FF34BF012000205DF808FB00BF4A0011D212F5001211D20DD56FF47873B3EB625229
:404440000ED44FEAC12343F0004343EA505323FA02F070474FF00000704750EA013002D14FF0FF3070474FF000007047000000002D2D2D2D2D205265736574202D2D2D2D0A
:404480002D0A00002D2D2D2D2D205370656564202D2D2D2D2D0A00002D2D2D2D2D2055706461746520202D2D2D2D2D0A000000002D2D2D2D2D2044697374616E6365202DC0
:4044C0002D2D2D2D0A00000025647C25647C256C647C256C647C256C647C25647C25647C25640A0020510040500000000140001000140140000800400140000A004C01403D
:4045000000020050014020004300000034000000CEFBFFFFCB03000001000000000000006E6600696E69747900616E0000000000BC89D897B2D29C3C33A7A8D523F64939E9
:404540003DA7F444FD0FA5329D978CCF08BA5B25436FAC642806681135000000CEFBFFFFCB03000001000000000000000020202020202020202028282828282020202020AF
:4045800020202020202020202020202020881010101010101010101010101010100404040404040404040410101010101010414141414141010101010101010101010101B9
:4045C000010101010101010110101010101042424242424202020202020202020202020202020202020202021010101020000000000000000000000000000000000000003F
:40460000000000000000000000000000000000000000000000000000000000000000000000000000000000000000000000000000000000000000000000000000000000007A
:40464000000000000000000000000000000000000000000000000000000000000000000000000000000000000000000000504F534958002E00000000000000000000F03F4A
:40468000000000000000244000000000000059400000000000408F40000000000088C34000000000006AF8400000000080842E4100000000D01263410000000084D7974195
:4046C0000000000065CDCD41000000205FA00242000000E876483742000000A2941A6D42000040E59C30A2420000901EC4BCD64200003426F56B0C430080E03779C341437E
:4047000000A0D8855734764300C84E676DC1AB43003D9160E458E143408CB5781DAF154450EFE2D6E41A4B4492D54D06CFF08044F64AE1C7022DB544B49DD9794378EA4496
:404740000080E03779C34143176E05B5B5B89346F5F93FE9034F384D321D30F94877825A3CBF737FDD4F157505000000190000007D000000232D302B2000686C4C00656669
:4047800067454647003031323334353637383941424344454600303132333435363738396162636465660000F8B500BFF8BC08BC9E4670474D00000045080000F8B500BF37
:4047C000F8BC08BC9E46704729000000E04700000881FF1FB8000000000900000000000000000000C08AFF1F0000E02EC05D00001800000000366E0100000000000000009E
:40480000000000000000000000000000000000000000000000000000084500000000000000000000000000000000000000000000000000000000000000000000000000002B
:404840000000000000000000000000000000000000000000000000002081FF1F6C4500007346000079470000794700007947000079470000794700007947000079470000CF
:404880007947000079470000FFFFFFFFFFFFFFFFFFFFFFFFFFFF00000000000000000000000000000000000000000000000000000000000000000000000000000000000086
:4048C00000000000000000000000000000000000000000000000000000000000000000000000000000000000000000000000000000000000000000000000000000000000B8
:404900000000000000000000000000000000000000000000000000000000000000000000000000000000000000000000000000000000000000000000000000000000000077
:404940000000000000000000000000000000000000000000000000000000000000000000000000000000000000000000000000000000000000000000000000000000000037
:4049800000000000000000000000000000000000000000000000000000000000000000000000000000000000000000000000000000000000000000000000000000000000F7
:020000040003F7
:0200000480007A
:40000000045200400664004004650040010101403302014023030140570401403C050140550601403107014051080140440901406C0A0140470B0140490C0140400D0140EE
:40004000610E0140320F01403E1401403015014041160140251701406C1801403F190140421A0140441B01400740014009410140034201400343014006460140024701404E
:400080000B48014004490140074D014008500140015101400001014061806440850D870D890F8C6F8E0F8F6F8438870D890F8B72E60116011A01360158045F018320841E0C
:4000C0008504871289108A208C188D028E068F049014920A940E970899109A019C069E18A040A110A40AA502A614A704A910AA40AD02AE40AF05B020B101B201B330B41EFB
:40010000B506B640B708BB20BE40D280D804D904DB04DC11DD10DF0102010328088009100A600D080F0810021288130419841A041B391F4020402288230C288029142B01F2
:4001400032083320386039023B04700281808740C007C26FC40FCA0FCC06CE0FE004040C05960602076809A30B5C14071701197F1A0F1C081E01210E23F0240B25FE260445
:400180002701280C29C52A012B3A31FF340F3F014030410249FF4AFF4BFF4DA04F045018580459045A045C015F01604062C06440654066C068C06AC06CC06EC087018B02B6
:4001C0009A02A501AB02AE01B201B402B502B701BF10C030C102C5D0C620C701C81AC9FFCAFFCBFFCDAFCE0FCF04D018D280D405D804D904DA04DB04DF01E040E2C0E4400C
:40020000E540E6C0E8C0EAC0ECC0EEC0000408800A200B040F08101011101740180419101D081F18210126402708289029102B102F183218382039103B043E203F084128D0
:4002400045284F015520562057045E805F0977408020902092049304950296609C809D10A208A310A508A704B204B308B410B510B601C004C247C486CA67CC06CE66D066C1
:40028000D6D0E2010201150116021B032A0231013201340235024030410549FF4AFF4BFF4DA04F0450185280580459045A045B045F01604062C06440654066C068C06AC004
:4002C0006CC06EC08001820283048418900292019301940C970498149C019E029F02A001A202A818B003B102B21CB304B701B808BA02BF04C030C105C5D0C610C720C82A1D
:40030000C9FFCAFFCBFFCDAFCE0FCF04D018D405D804D904DA04DB04DC11DF01E040E2C0E440E540E6C0E8C0EAC0ECC0EEC00004028006800AA60D081110130115201AA0E0
:400340001D081F20220523012748310832813620370839024108450849014A024E025111522259015A085B40768082509004911092049620A020AC80B404B640C01CC22F4A
:40038000C44ACC6BCE01D042D218D60BE405EE020201057F060208010C08100111C5133A15FE160C1701181019A31B5C1C101D961F682001241028012B012D0E2E082FF04B
:4003C0003004320333FF3410360838203E503F045280580459045B045C015D105F01850388038A0C8B038C038E049E08A003A204A40AA604A902AA05AB01B20FB502B701CE
:40040000BA08BF50C036C105C5E0C6BCC80EC9FFCAFFCBFFCEF0CF44D00CD40FD604D804D904DA04DB04DC02DD12DF01E6C0EA40EB0200100202044007680A020E640F0138
:40044000108812201620179218301C421D201E201F04225027202B042E402F043528375A38043B203E04401048084A82508052105AA5608077808002811083418A018B08D6
:40048000900492449301970299289A209B029C0A9D109F40A304A401A520A605AE20B420B601B708C0F3C2F1C4FECA34CCF0CE46D002D20CD60FD801EC4000050102020AE3
:4004C0000304080C0A031003120C140F15021714180719041B021D021F0C200A220527013108320F3301350637103B204052410349FF4AFF4BFF4DA04F0150185804590488
:400500005A045C115D015F016040628064406540668068406A806C406D206E8083308510860F887389048C9E8D078E6090CF923093049430950196C9970298949A609B07E5
:40054000A308A4FDA501A602A702AD07B30FB520B6FFB710BE40BF40C052C103C53CC620C74EC83BC9FFCAFFCBFFCDAFCE07CF01D018D804D904DA04DC10DD01DF01E040DA
:40058000E280E440E540E680E840EA80EC40ED20EE80012003400510060107200A640C010D120F1013021610190C1A201F402119226024042648272028202F61310832605C
:4005C00033203401372839123A203C043D803F124120421043044520470448014A024E024F05562857018301925493109530970699209A109B029C0A9D149E09A142A30471
:40060000A64DB001B140B250B310B702C0EAC27EC428CAD2CCEECEF1D066D218ECA0EE5000080201033C0450050208070C600D200F04100C1130120213081460152C17100A
:4006400018302303240B251C260429302A0F2B042C0C2E01300F330134703502373C38203F10540F580459045B045C115D105F05847785CF873088C08A248C848D948E105E
:400680008F609001919E92F2936095FD9607970299739A08A0C1A212A8B7AA40AB0FAD30AFC9B20FB4F0B5FFBF10D804D904DC01DF0101A0032005140640070609200A5020
:4006C0000D020E040F201004130215201611180819201A101B141D021E041F222120240425042703280229802B052D212F203004310433213504370238883D083E403F02A2
:400700005D105E8A660867047F208310908091019240940497029C099F14A608B212B312C0F7C27EC4EACAECCCC7CEDAD6F0D860DE401002120114011502160A17011801D1
:400740001A021C011E061F032503300334043502360837013A023F504023410649FF4AFF4BFF4DA04F015018540F5604580459045A045B045C015D115F0160406280644041
:400780006540668068406A806C406D206E8081018B029008950296019C02A101AC02AD01AE0CB004B201B301B408B602B702B880B908BE10BF44C023C106C53CC640C72E12
:4007C000C83BC9FFCAFFCBFFCDAFCE07CF01D018D40FD804D904DA04DB04DC01DD11DF05E040E280E440E540E680E840EA80EC40ED20EE8008080A450D020F2216021880D1
:400800001A451D861F1022502508264029042E022F013180320835043F2241084310450847104A084D014E084F06560A571058015AA05B045C045EA05F02608066086704F4
:400840007F018080C2BFC480CA92CC4ACEA0D066D224D6FFD861DE100301060109020A0210021102140215021E01210222022701320233023501360138083E403F144016EC
:4008800049FF4AFF4BFF4F01501854185604580459045A045B045C025D205F016040624064406540668068806A806C806E80C016C9FFCAFFCBFFCD83CE03CF01D018DA0429
:4008C000DF01E040E240E440E540E680E880EA80EC80EE800018080109881102194820202304288029083001310838103B014340474048084C085902614063848080810114
:4009000083408414880189028C108D0893019B40A008A188AA10B180B208C006C20DC408CA03CC03CE05D018D224D601D80DE008E603EC8413013701401649FF4AFF4BFF0A
:400940004D834E034F015018528059045A045B045C105F016040624064406540668068806A806C806E80800197019F01A605AA02B004B101B202B601BB08BE40BF01C01691
:40098000C5ECC702C813C9FFCAFFCBFFCD83CE03CF01D018D401D604D804D904DA04DB04DC21DF01E040E240E440E540E680E880EA80EC80EE80010210201208180219028D
:4009C0001A2021082380268030083340370243404740480849054C08500859055B806340774087408C018F03A020A680AB20C008C406CC8AD018D224D60BD801E010EE0289
:400A0000100111011326151417491C022402251F2605291F2D0A2F5130043160340235183601370738203E403F01404641024203440146E0470C481849FF4AFF4BFF4C6297
:400A40004DA04EF04F41500C580459045A045C215D025F016640670269106A306B106D106E106F1280108414875189D08B258C6C8DD08E118F2393269480962099A69A03E5
:400A80009B119C099D089E10A220A302A41CA662A870AA0CB020B107B308B41FB533B6C0B7C0B880B980BB22BE01BF44C001C540C9FFCA07CBFFCC40CD20CEF0CF05D0080E
:400AC000D401D804D904DA04DB04DC22DD22DF01E040E1A8E240E32000400102021009080A060E800F0110801110122016201A461E821F10204021402236274A29022D8042
:400B00002F283291370A38683910414045024604474449024E08500C5108542458025A485B10600262808C208E0490209301960297209A309C08A080A280A408A627AC8035
:400B4000C00DC297C42ECA71CCCDCE0ED0F8D220D60FE040E610001C020206030A040C040E2010071218141F18401C1C1E01201024082818301F342036403A023E40580495
:400B80005C025F01800F810F8230840C8502880489068C118D098F0690339110920C940C96339A339B099C089D069F09A033A104A422A510A83FA910AD07AF08B00FB23042
:400BC000B310B507B70EBA02BB80D602D711D804D904DB04DC22DD20DF0101A20310040205800628080409820A040C800E480F2010A0132014041604170A180119221A803E
:400C00001B021D021E6024022580266C27142C802F2A364037113E683F015F106F2974A076287720800181808620871089828A108E448F1192049B0A9D809E049F04A5024F
:400C4000A608A728A888AB10B004C0FFC2FFC47ECAF0CCB0CEF0D620E001E290E410E620EA2032403302364037028240CCF0E6805780631087109F02A640A702D440D840DE
:400C8000E2109F02A640A7829F02A640A782010206809E80B680C00CEE08B502EA020020041087028C109F02A702AB80AE40C0C0E640EE608302A702B010E220110171027B
:400CC00081028901C408DC01E601000708030A030C060E0210071A071C0600FF007F7F00410000008000408080008000000000003C00000000000000000B0B0000000000EC
:400D000000000000000000000000000000000000000000000000000000000000000000000000000000000000000000000000000000000000000000000000000000000000B3
:400D40000000000000000000000000000000000000000000000000000000000000000000000000000000000000000000000000000000000000000000000000000000000073
:400D80000000000000000000000000000000000000000000000000000000000000000000000000000000000000000000000000000000000000000000000000000000000033
:400DC00000000000000000000000000000000000000000000000000000000000000000000000000000000000000000000000000000000000000000000000000000000000F3
:0200000490006A
:0400000000004005B7
:0200000490105A
:04000000BC90ACAF55
:0200000490303A
:020000005F1788
:0200000490402A
:4000000000000000000000000000000000000000000000000000000000000000000000000000000000000000000000000000000000000000000000000000000000000000C0
:400040000000000000000000000000000000000000000000000000000000000000000000000000000000000000000000000000000000000000000000000000000000000080
:400080000000000000000000000000000000000000000000000000000000000000000000000000000000000000000000000000000000000000000000000000000000000040
:4000C0000000000000000000000000000000000000000000000000000000000000000000000000000000000000000000000000000000000000000000000000000000000000
:0200000490501A
:0C00000000012E16106900012E366F80E2
:00000001FF